:2000DB00AF8290E600E05418C423541FFEBE020E8F06000000000000000000DEF52290E6EC
:1700FB0000E05418C423541FFEBE01088F06000000DEFB22DFFE22F4
:20011200C0148581140581AD82AE83AFF0A814087600AC140C7B007A40C007C006C005E4E9
:20013200C0E0C0E0C0E0C0E0C0E0C004C003C00204C0E0E4C0E0758257121AF9AC82E58115
:2001520024F6F581D005D006D007EC7004F582802BE51424FDF886037C00C005C006C00790
:20017200C003C004758257121CA5AF82E58124FBF581EF7004F58280037582011581D014CA
:2001920022C014858114C082C083C0F00581E5142404F87600E51424FDF886037C00E514E3
:2001B2002404FA7E007F40A81408E6C0E008E6C0E008E6C0E0C003C004C002C006C007741E
:2001D20001C0E0E4C0E0758257121AF9AF82E58124F6F581EF7004F5828003758201851460
:0401F20081D0142282
:2001F6007F1453B1FB758229C0071200DBD00743B104E5B130E00475820022E5B120E00952
:20021600EF14FEFF70F5F58222903C6C7401F075820122AF828F061FEE601BC29990E67B79
:20023600E0F599E5B120E009903C6CE4F0758200222099E180FBE5B130E10C758264120041
:12025600DB903C6C7402F075820122903C6CE0F5822252
:0121F10000ED
:04000000020059326F
:01000B0032C2
:030013000209DE01
:01001B0032B2
:0100230032AA
:01002B0032A2
:01003300329A
:01003B003292
:03004300023F0079
:01004B003282
:03005300023F0069
:0600B200C200C201C202FF
:0300D800020056CD
:030056000209E1BB
:2002680075820022C014858114758201D01422C014858114758201D0142275820122758274
:200288000122AF82BF100302032BBF1103020356BF2003020384BF2103020399BF22030200
:2002A800040ABF230302041DBF2403020452BF300302048DBF31030204B8BF32030204ECC6
:2002C800BF330302052BBF3403020551BF4003020574BF41030205B4BF42030205E3BF4376
:2002E8000302061FBF4403020664BF4F03020679BF500302068BBF51030206DFBF60030205
:200308000739BF61030207B6BF62030207EBBF63030207FCBF640302080DBF6F0302081EDB
:2003280002082190E6BCE0700C90E6BAE0FF24FF928702082190E6BCE0FFBF01028003022E
:20034800082190E6BAE0FF24FF92860208217F0090E6BEE0FEC3EF9E5016EF2440FDE43448
:20036800E7FEEF90216193FC8D828E83F00F80E090E6BEE0FF90E68BF00208211201F6E564
:2003880082600302082190E6A0E043E001F0020821120261AF82BF0102800890E6A0E043E7
:2003A800E001F090E6BFE0FE7F0090E6BEE0FD7C004207EC4206EF4E700302082190E68BEC
:2003C800E4F000000090E6A0E020E1F9759AE7759B4090E68BE0F582C007C006120229E504
:2003E80082D006D007700B90E6A0E043E001F002082190E68BE0FD7C00EFC39DFFEE9CFEE6
:2004080080B4120261AF8290E740EFF090E68B7401F0020821759A40759B00759DE7759E68
:200428004090E6BCE0F59B7F0090E6BEE0FEC3EF9E500B90E67BE090E67CF00F80EB90E6F3
:20044800BEE0FF90E68BF002082190E68BE4F000000090E6A0E020E1F9759AE7759B40755B
:200468009D40759E0090E6BCE0F59E7F0090E6BEE0FEC3EF9E400302082190E67BE090E649
:200488007CF00F80E890E6BEE0FFC00790E74075F000120112AF821581EF700890E6A0E032
:2004A80043E001F090E6BEE0FF90E68BF002082190E68BE4F000000090E6A0E020E1F9909C
:2004C800E6BEE0FFC00790E74075F000120193AF821581EF600302082190E6A0E043E001AA
:2004E800F002082190E68BE4F000000090E6A0E020E1F990E68BE0FFBF3002800B90E6A0A2
:20050800E043E001F002082190E74075F000121003E582600302082190E6A0E043E001F074
:2005280002082190E6BAE0FF90E6BCE0FEC0078E8212124DAF821581EF600302082190E667
:20054800A0E043E001F002082190E6BAE0FFBFA515121270E582600302082190E6A0E0438A
:20056800E001F002082112127E02082190E6BDE0FF90E6BBE0FD7E0090E6BAE07B00420639
:20058800EB420590E6BCE0FCC007C006C0058C82120AFBAF82158115811581EF600302084D
:2005A8002190E6A0E043E001F002082190E6BBE0FF90E6BAE0FE90E6BCE0FDC007C0068D96
:2005C80082120C7BAF8215811581EF600302082190E6A0E043E001F002082190E6BAE0FFDA
:2005E80090E6BCE0FE90E6BCE0FDBD020050067C027D0080047C007D00EC2EF582C00712DD
:200608000B98AF821581EF600302082190E6A0E043E001F002082190E6BAE0701CC2AA901E
:20062800E6BCE0F582120FC275820A1200DBC28BD2AAD287C28602082190E6BAE0FFBF0184
:2006480010C287C28690E6BCE0F582120FDB02082190E6A0E043E001F0020821120F01E505
:2006680082600302082190E6A0E043E001F0020821A281E433FF90E740F090E68B7401F0E7
:2006880002082190E6BEE0FF7E0090E6BDE0FC7D0090E6BCE07A004205EA42047440C0E0B3
:2006A80074E7C0E0E4C0E0C007C006C005C004758251121F60AF82E58124F9F581EF600C3F
:2006C80090E6BEE0FF90E68BF002082190E6A0E043E001F002082190E68BE4F00000009049
:2006E800E6A0E020E1F990E6BEE0FF7E0090E6BDE0FC7D0090E6BCE07A004205EA420474FE
:2007080040C0E074E7C0E0E4C0E0C007C006C005C004758251121E70AF82E58124F9F5814A
:20072800EF600302082190E6A0E043E001F002082190E6BEE0600F90E68BE4F00000009017
:20074800E6A0E020E1F9759AE7759B4090E6BCE0702090E601E054BFFF90E6BAE060067DED
:20076800407E0080047D007E0090E601ED4FF002082190E6BEE0FF90E6BBE0FD7E0090E651
:20078800BAE07B004206EB420590E6BCE0FCC007C006C0058C8212135BAF82158115811562
:2007A80081EF707590E6A0E043E001F0806B90E6BCE0FF7440C0E074E7C0E0E4C0E08F82F2
:2007C8001213D4AF82158115811581EF600B90E6BEE0FF90E68BF0804090E6A0E043E001ED
:2007E800F08036121430E582702F90E6A0E043E001F08025121449E582701E90E6A0E043A3
:20080800E001F08014121492E582700D90E6A0E043E001F0800312150C75820122A285B31B
:200828009208E43390E7C0F0A200E43390E7C1F0121505AF8290E7C2EFF090E68F7403F016
:20084800C2002290E60174C0F090E600E054E74410F090E60B7403F000000090E67A7401EF
:20086800F075AF0790E67004F075800875B2DD75900075B30075A00075B40075B00075B5C0
:200888000090E6727418F075B10475B664758200120FC2758201120FC2120FF4120A5A43B0
:2008A800B10475982090E61174B0F000000090E61274A2F000000090E61474E2F000000055
:2008C80090E6137420F000000090E6157420F000000022C0E0C082C083D2025391EF90E690
:2008E8005D7401F0D083D082D0E032C021C0E0C0F0C082C083C007C006C005C004C003C058
:2009080002C001C000C0D075D0007582001219585391EF90E65D7410F0D0D0D000D001D0D2
:2009280002D003D004D005D006D007D083D082D0F0D0E0D02132C021C0E0C0F0C082C08396
:20094800C007C006C005C004C003C002C001C000C0D075D0007582011219585391EF90E6DA
:200968005D7420F0D0D0D000D001D002D003D004D005D006D007D083D082D0F0D0E0D0214C
:2009880032C021C0E0C0F0C082C083C007C006C005C004C003C002C001C000C0D075D00076
:2009A8005391EF90E659E030E10912082590E6597402F090E65B7401F0D0D0D000D001D0D8
:2009C80002D003D004D005D006D007D083D082D0F0D0E0D02132D2013212084B1212F5D257
:2009E800E890E668E043E008F090E65CE043E001F090E65CE043E010F090E65CE043E0209E
:200A0800F090E6587402F090E65A14F0D28AC28BD2AAD2AF90E680E020E11690E680E0432A
:200A2800E00AF09005DC12201690E680E053E0F7F0D287121555100202800312163B10014B
:120A48000280F0120F0112127E12150CD286D20080E1A8
:0C00B800750925750A21750B2B750C21AC
:200A5A00C01485811405810581120F01A9140989057E007F40C001C005C006C0077402C086
:200A7A00E0E4C0E07408C0E0E4C0E0758251121F60AF82E58124F9F581D001EF7002805B48
:200A9A008707BF1B08098707BFCA028002804CAE09AF0A7D00C006C007C0057406C0E0E41F
:200ABA00C0E0740AC0E0E4C0E0758251121F60E58124F9F581AE0BAF0C7D00C006C007C0CA
:200ADA00057406C0E0E4C0E07410C0E0E4C0E0758251121F60E58124F9F581851481D014E1
:200AFA0022C014858114058105810581E582FF24FC5006758200020B92BF02005014E514AA
:200B1A0024FCF8C3E694C208E6940150057582008066E51424FBF8E6600EA914098F06EE42
:200B3A002EFE74584EF7800AA91409EF2FFF74404FF7AF140FEF04F9E51424FCF808860694
:200B5A00740F5EF774022FF9E51424FCF88606A7067E007D40C007C006C0057403C0E0E433
:200B7A00C0E0C0E0C0E0C0E0C0E0C0E0758260121AF9E58124F6F581851481D01422C01435
:200B9A00858114058105810581AF828F057E00ED24FEFDEE34FFFEC374019D74808EF06377
:200BBA00F08095F0400AE51424FDF8B60A005006758200020C757404250BFDE4350CFEEF83
:200BDA0024FEFC2DF582E43EF583E0FEE51424FDF8EE26F674042509FDE4350AFEEC2DF5D3
:200BFA0082E43EF583E0FE7D00E51424FDF886037C00C007C003C0048E828D83121AD6AD30
:200C1A0082AE8315811581D007EEC423CDC423541F6DCD541FCD6DCDFEA91409EF2FFF74FF
:200C3A00404FF7E904F88E07740F5FF6740229F8A60589077E007D40C007C006C0057403EC
:200C5A00C0E0E4C0E0C0E0C0E0C0E0C0E0C0E0758260121AF9E58124F6F581851481D014C6
:200C7A0022C014858114C082E5812409F581A81408E624FE4045A81408E670057D70FE8024
:200C9A00047D187E00E51424FDF886037C00C3EB9DEC64808EF063F08095F0401EA81408F9
:200CBA00E670057DF0FE80047D687E00C3ED9BEE64808CF063F08095F05006758200020E1F
:200CDA00FBA81408E625E0FE2509F582E4350AF583E0FCA3E0FDA8140808A60408A6050885
:200CFA007600087600E51424FDF886037C007D007F00C006C003C004C005C007A81408082E
:200D1A0086820886830886F008E61220A4AB82AC83ADF0FFE58124FCF581D00674802BE491
:200D3A003CFCE43DFDE43FEE250BFEE4350CFA8C038D048E828A83E0FEA3E0FAEEC39BFB06
:200D5A00EA9CFCA81408E675F002A42400FE743C35F0FF8E828F83E0FAA3E0FDEAC39BFA8E
:200D7A00ED9CFDE5142409F8A60208A605E51424FCF8C3748086F063F08095F04006758287
:200D9A0000020EFBE5142409F808E6FB30E709E51424FCF8C3E496F6E5142409F8E6084671
:200DBA007003020EF8E51424FCF8C3748086F063F08095F0502FE51424FCF88602E6339542
:200DDA00E0FBE5142409F8C3E69A08E664808BF063F08095F0503BE5142409F8E51424FC56
:200DFA00F9E6F7802DE51424FCF88602E63395E0FBE5142409F8C3EA96EB64800886F06323
:200E1A00F08095F0500CE5142409F8E51424FCF9E6F78E828F83A8140808E0F6A3E008F615
:200E3A00E51424FCF88604E63395E0FD8C028D03A8140808E6C39AFA08E69BFB8E828F83A5
:200E5A00EAF0EBA3F0C006C007E5142409F88606088607EEC39CFCEF9DFDE5142409F8A6BE
:200E7A000408A605C3EA94C2EB9401D007D0065007D2867582008069E5142406F9A8140802
:200E9A00E626FD74404DF7E904F88E828F83E0A3E0FC740F5CF6740229F88E828F83E0F66D
:200EBA0089057C007B40C007C006C005C004C0037403C0E0E4C0E0C0E0C0E0C0E0C0E0C09F
:200EDA00E0758260121AF9AD82E58124F6F581D006D007ED6003020DB27582008003758248
:200EFA0001851481D01422C014E581F514240AF581A814087606AF140F7E007D40E4C0E0FF
:200F1A00C0E0C0E0C0E0C0E0C007C006C00504C0E0E4C0E0758200121AF9AF82E58124F6F0
:200F3A00F581EF7005F582020FBCE5142402FFFC7D007E40C007C004C005C0067409C0E0F1
:200F5A00E4C0E0758260121CA5AE82E58124FBF581D007EE7004F5828048EF04F98706535A
:200F7A00060F8E057E0074022FF987047B00EC4206EB4205903C00EEF0EDA3F074072FF95A
:200F9A00870653060F8E057E0074082FF987077C00EF4206EC4205903C02EEF0EDA3F07578
:200FBA008201851481D01422AF82C283000000EF7004C2828005BF0102C284000000D28375
:1A0FDA0022AF82C283000000EF7004D2828005BF0102D284000000D283229A
:0C212500EB135A28867BC9151C1310FD13
:200FF40053B1DF75C00090213175F080021003C014858114C082C083C0F0E581240DF581B9
:20101400E5B130E506758200021247308106758200021247E5142404F8E4F608F608F608B9
:20103400F67E00E514240CF87630C006E514240CF886061EA81408EE26FDE40836FE08864D
:20105400078D828E838FF0122088FAE5142404F8E5142408F9080808E6C313090909F718ED
:20107400E61319F718E61319F718E61319F7EAD00630E20A7B007C007D807F0080087B00BF
:201094007C007D007F00E5142408F8E6420308E6420408E6420508E64207EA2AFAE51424B1
:2010B4000DF8EFC313080808F6ED1318F6EC1318F6EB1318F6EA30E20A7C007D007B807FA4
:2010D4000080087C007D007B007F00C0068B06E514240DF8E6420408E6420508E642060869
:2010F400E64207EA2AFAE5142408F8EFC313080808F6EE1318F6ED1318F6EC1318F6EAD0CB
:201114000630E20A7D007B007C807F0080087D007B007C007F00E5142408F8E5142404F974
:20113400ED46F7EB084609F7EC084609F7EF084609F7E514240CF886057F001DBDFF011F9D
:20115400ED540760030211D6EE04FFEE2434FCE4343CFDE5142404F886028C828D83EAF0CA
:201174008F050FE5142408F8ED2434F6E4343C08F6E5142404F80886037D008B02E514243D
:2011940008F88682088683EAF0EF04FEE5142408F8EF2434F6E4343C08F6E5142404F87B17
:2011B40000080886047F008C02E5142408F88682088683EAF0E5142404F8E4F608F608F675
:2011D40008F6E514240CF816E514240CF8E6600302103E759A3C759B3490E600E0FF74E7CD
:2011F4005FF07E00C2C190E67BE0F5C130C1FD0EBE120040EF75820AC0071200DBD00790ED
:20121400E600EFF07F00EF2404FDE4343CFEA81408EF26FAE40836FB0886048A828B838CE8
:20123400F0122088FA8D828E83F00FBF300040D6758201851481D01422C014858114E58265
:201254002404F582E4343CF583E51424FDF8E6F0903C0475F000121003D01422308104759D
:1612740082002243B1207582012253B1DF90213175F080021003D3
:2021310004040404040404040404040404040404040404040404040404040404040404040E
:10215100040404040404040404040404040404043E
:203E000012010002FFFFFF40091201480100010200010A060002FFFFFF4001000902270065
:203E200001010080FA0904000003FFFFFF00070581030002090705020200020007058602B8
:033E40000002007D
:203E44000902270001010080FA0904000004FFFFFF0007058103400014070502024000006E
:073E64000705860240000083
:203E6C00040309042A0377006F006A00630069006500630068006B003800400067006D00F2
:203E8C00610069006C002E0063006F006D0014034E0056004D0065006D00500072006F0068
:043EAC0067000000AB
:0200C400C20375
:20128A00903C57E0FEA3E0FF759A3C759B467D00903C56E0FCC3ED9C50298E04EC139208B5
:2012AA0090E67BE02400FCE43440FBA208E433FA43023E8C828B83EAF0EFC313CE13CEFF39
:2012CA000D80CD2275BEFFE5BB30E7FB75BE50E5BB30E7FB2275BE70E5BB30E7FBE5BEE570
:2012EA00BB30E7FBE5BF5480F5822290E6017482F090E6F574FFF090E6F374C0F090E6C315
:20130A00E4F090E6C1F090E6C27407F090E6C0744EF090E6F4E4F090E60C04F0759A2175E4
:20132A009B71759DE4759E007F0090E67BE090E67CF00FBF800040F290E67174FFF0F5B4E9
:20134A0090E672E043E080F043B68090E6C6E4F022C014858114AF82BF01028005BF025FF7
:20136A008029759D3C759E467F00E51424FBF8C3EF96500B90E67BE090E67CF00F80EBE5CF
:20138A001424FBF8903C56E6F08039E51424FBF8E6C313FF24F75005758200802A903C5966
:2013AA00EFF0759D3C759E5A7F00E51424FBF8C3EF96501090E67BE090E67CF00F80EB75B0
:2013CA0082008003758201D01422C014858114AF82E50D60057582008049BF00028005BFC5
:2013EA000117800A90E6C5E4F0000000801090E6C57401F000000080057582008025E5BE3E
:20140A00E5BB30E7FBE51424FBF886050886060886078D828E838FF0E5BF121ABA12150CF0
:20142A00758201D01422E50D6004758200221212CE903C6AE4F0750D01D20375820122E5E2
:20144A000D60047582002290E6D07402F000000090E6D1E4F000000090E6C27406F000008F
:20146A000090E6047480F000000090E6047406F000000090E61A7408F000000075BB067579
:20148A000D02D20375820122E50D6004758200221212CE90E6D0E4F000000090E6D174010D
:2014AA00F000000090E6C47401F000000090E6C574FFF0903C57F0A3F090E6C27406F000AD
:2014CA00000090E6047480F000000090E6047482F000000090E604E4F000000090E64974C3
:2014EA0082F000000090E6497482F000000090E6187410F0750D0375820122A203E433F579
:20150A00822290E6F574FFF090E6C27407F090E6C4E4F000000090E6C5E4F0000000903CC3
:20152A0057E4F0A3F012128A90E6047480F000000090E618E4F000000090E61AE4F0000011
:20154A000090E604E4F0F50DC20322E50D24FC500122E50D75F003A49015667302157202BE
:20156A0015730215C80215F1221212DFE582700122903C6AE0FF903C59E0FEC3EF9E5038E3
:20158A008F06903C6AEF04F0EE75F002A4245AF582743C35F0F583E0FEA3E0FF903C57EEE7
:2015AA00F0EFA3F012128A75BE20E5BB30E7FB75BED0E5BB30E7FB22750D00C20322E5BB1C
:2015CA0030E76D903C57E02401F0A3E03400F012128A90E6D07402F000000090E6D1E4F049
:2015EA0000000075BB0622E5BB30E744E5AB30E103C203221212DFE582603590E6C4E0FFEB
:20160A00BF011790E6C5E0FFBFFF0F903C57E02401F0A3E03400F012128A75BE40E5BB3052
:11162A00E7FB90E6D17401F000000075BB00D20322FA
:202161003238660000000000000000000000000008013F0101010107000201000000000038
:20218100020206060606060600003F000000003F05013F0101010107020001000000000045
:2021A100242606060606060600003F000000003F0401023F01010107000A000100000000D7
:2021C10002020606060606060000003F0000003F0105013F010101070A02040100000000F7
:1021E10026242606060606060000003F0000003FE2
:06008800E478FFF6D8FD4C
:1200C600750E00750F0075104475113E75121C75133E2B
:20163B00C014858114058190E6B9E0FF24F45003021756EF240A83F582EF241083F583E41A
:20165B00737489569E5656B356C3DAF4341616171617171617161616171217D0E5826003C1
:20167B0002176B90E6A0E043E001F002176B121864E582600302176B90E6A0E043E001F057
:20169B0002176B1218D3E582600302176B90E6A0E043E001F002176B120268E5826003028A
:2016BB00176B12198302176B120282AF8290E740EFF090E68AE4F090E68B04F002176B9021
:2016DB00E6BAE0F582120286E582600302176B90E6A0E043E001F08077AF140F7E007D4002
:2016FB0090E6BCE0FCC007C006C0058C8212026CAF82158115811581EF700A90E6A0E0434C
:20171B00E001F0804B90E740A81408E6F090E68AE4F090E68B04F0803790E6BAE0FF90E6BC
:20173B00BCE0FEC0078E82120277AF821581EF701F90E6A0E043E001F0801590E6B9E0F5AA
:20175B008212028AE582700890E6A0E043E001F090E6A0E043E080F01581D01422AF82749B
:20177B007F5FFE24F750030217CCEE240A83F582EE240D83F583E473A5A9BCCCC0CCC4CCA6
:20179B00C817171717171717171790E6A022EF30E7067EA27FE680047EA17FE68E828F83A4
:2017BB002290E6A32290E6A42290E6A52290E6A6229000002290E6B8E0FFBF80028022BF99
:2017DB0081028008BF8202803702185C90E740E4F090E741F090E68AF090E68B7402F08069
:2017FB0064E50F25E0FFE50E420790E740EFF090E741E4F090E68AF090E68B7402F08045F8
:20181B0090E6BCE0F582121778AE82AF838E048F05EE4F7003F582228C828D83E0FC30E0A8
:20183B00067E017F0080047E007F0090E740EEF090E741E4F090E68AF090E68B7402F08010
:20185B0004758200227582012290E6B8E0FF6005BF0258801B90E6BAE0FFBF0105750F00B8
:20187B00805290E6BAE0FFBF060280487582002290E6BAE0703190E6BCE0F582121778AE3B
:20189B0082AF83E0FD5305FE8E828F83EDF090E6BCE0FF30E70343071053071F90E683EF61
:2018BB00F074204FF0800D7582002290E6B9E0F58202028A7582012290E6B8E0FF6005BF45
:2018DB00026E802690E6BAE0FFBF020302195490E6BAE0FFBF0105750F01805D90E6BAE04F
:2018FB00FFBF060280537582002290E6BAE0703C90E6BCE0F582121778AE82AF83EE4F7026
:20191B0003F582228E828F83E0FD4305018E828F83EDF090E6BCE0FF30E7034307105307EA
:20193B001F90E683EFF074204FF0800D7582002290E6B9E0F58202028A75820122AF82D3EA
:20195B0010AF01C3C0D0EF600E75101C75113E75124475133E800C75104475113E75121C4A
:20197B0075133ED0D092AF22C014E581F5142404F58190E6BBE0FFBF01028019BF020280F4
:20199B0026BF03028030BF0603021A8DBF0703021A9E021AAC7E007F3E90E6B3EFF090E61D
:2019BB00B47400F0021AB490E6B3E511F090E6B4E510F0021AB4A81408766C08763E087656
:2019DB008090E6BAE0FCE5142404F87600E5142404F8E6B504028071C004E5142404F80643
:2019FB00A814088602088603088604A8140886820886830886F01220882AFAE43BFBA8144E
:201A1B0008A60208A60308A604A81408740126FDE40836FE0886078D828E838FF01220882E
:201A3B00FDBD0304D004800CD004A81408E4F608F6087600A81408E60846600DE5142404F6
:201A5B00F8C3EC9640030219E8A81408E608466017A81408860508860690E6B3EEF0A814D3
:201A7B000890E6B4E6F0803190E6A0E043E001F080277E127F3E90E6B3EFF090E6B47412DC
:1F1A9B00F0801690E6B3E513F090E6B4E512F0800890E6A0E043E001F0851481D01422D2
:200066007901E94400601B7A019021F1786C75923CE493F2A308B800020592D9F4DAF275A1
:0200860092FFE7
:1B1ABA0020F71130F6138883A88220F509F6A8837583002280FEF280F5F0222B
:203F00000208DB00022123000221180002211C000208F30002093E000221150002200A0052
:203F200002200C0002200D0002200E00022011000221220002212400021AD5000220010021
:203F40000209890002200A000221140002211600022117000221190002211A0002211B0040
:203F60000220870002200A0002200A0002200A0002200B0002200F0002201200022014004C
:203F800002201000022013000220150002208600022002000220040002200600022008003F
:183FA00002200300022005000220070002200900021AF8000221210011
:011AD50032DE
:201AD60074FE2581F8E68582F0A4C0E08582F018E6A4F582D0E025F0C58386F0A42583F5EB
:021AF600832249
:011AF80032BB
:201AF900C014858114C082058105810581E51424FCF8E51424F7F9E726FD09E70836FEE5D2
:201B1900142403F8A60508A6067C02903C6BE4F0903C6BE06006758200021C9F90E678E092
:201B390043E080F090E678E030E20C90000AC004122016D00480D9A81408E626FB90E67980
:201B5900F090E678E020E006903C6BE060F3903C6BE06006758200021C9F90E678E020E23D
:201B7900AF90E678E020E13990E678E043E040F090E678E030E606903C6BE060F3903C6BE9
:201B9900E06006758200021C9FEC14FBFC7005F582021C9F90000AC004122016D004021BFB
:201BB900297A007B00E5142403F8C3EA96EB08964003021C7CE51424FCF8C3EA96EB089650
:201BD9005023C004E51424F9F8EA26FCEB0836FE0886078C828E838FF0A8140808122088BB
:201BF900F6D004802AE51424FCF8EAC396FEEB0896FFE51424F4F8EE26FEEF0836FF0886A9
:201C1900058E828F838DF0A8140808122088F6A814080890E679E6F00ABA00010B90E6783C
:201C3900E020E006903C6BE060F3903C6BE06005758200805190E678E030E203021B29903E
:201C5900E678E030E103021BBE90E678E043E040F090E678E030E606903C6BE060F37582D2
:201C790000802390E678E043E040F090E678E030E606903C6BE060F3903C6BE060057582C0
:201C9900008003758201851481D01422C014858114C08205810581903C6BE4F0E51424FC30
:201CB900F8E4B6010508B6000104FE903C6BE06006758200021E6A7C007D0090E678E043AA
:201CD900E080F090E678E030E20C90000AC006122016D00680D5A81408E626FB90E67974AE
:201CF900014BF090E678E020E006903C6BE060F3903C6BE06006758200021E6A90E678E085
:201D190020E2A890E678E020E11B90E678E043E040F090E678E030E606903C6BE060F3752C
:201D39008200021E6AEE600890E678E043E020F090E679E0A8140808E4F608F6C004C0052B
:201D5900A8140808740126FCE40836FDE51424FCF8C3EC96ED0896D005D0044003021E08F3
:201D790090E678E020E006903C6BE060F3903C6BE06006758200021E6A90E678E030E2032B
:201D9900021CC4C006A8140808740226FEE40836FFE51424FCF8E6B5060708E6B507028016
:201DB90004D006800AD00690E678E043E020F0C006A81408088606088607A814080806B694
:201DD90000020806A81408088604088605E51424F9F8EE26FEEF0836FB08860790E679E045
:201DF900FA8E828B838FF0121ABAD006021D5590E678E020E006903C6BE060F3903C6BE0AE
:201E19006005758200804A90E678E030E203021CC490E678E043E040F0E51424F9F8EC267D
:201E3900FCED0836FD08860790E679E0FE8C828D838FF0121ABA90E678E030E606903C6B5F
:201E5900E060F3903C6BE060057582008003758201851481D01422C014858114C082E58192
:201E79002405F581E5142402F9FEE5142405F8E4F608F6E51424FCF88602088603E514245B
:201E990005F8C001E51424FAF9C3E69708E60997D0014003021F577C0090E678E030E4069D
:201EB9007C018B07A707EC04FDEC29F88A07A6078D07C002C003ED04FBEF29F8C000E51446
:201ED90024F7F8C001E5142405F9E726FA09E70836FD088607D001E5142405F806B600028A
:201EF9000806D0008A828D838FF0122088F68E047D007F407A00C006C003C002C001E4C0A8
:201F1900E0C0E0C0E0C0E0C0E0C004C005C007C003C002A814088682121AF9AF82E58124C7
:201F3900F6F581D001D002D003D006D003D002EF7004F582800B0ABA00010B021E96758249
:201F590001851481D01422C01485811405810581AF827E0090E678E030E40FA914097E0168
:201F7900E51424FCF8088605A705AD140DEE04FCEE2DF9E51424FCF88606A7067E007B40A5
:201F99007A00C007E4C0E0C0E0C0E0C0E0C0E0C005C006C003C004C0028F82121AF9AE82A9
:201FB900E58124F6F581D007EE7004F5828033E51424F7F8E6C0E008E6C0E008E6C0E0E51C
:201FD9001424FAF8E6C0E008E6C0E08F82121CA5AF82E58124FBF581EF7004F582800375C8
:081FF9008201851481D014223D
:0120010032AC
:0120020032AB
:0120030032AA
:20008E007800E84400600A790075923CE4F309D8FC786CE84400600C7901903C00E4F0A39B
:0400AE00D8FCD9FAA7
:0120040032A9
:0120050032A8
:0120060032A7
:0120070032A6
:0120080032A5
:0120090032A4
:01200A0032A3
:01200B0032A2
:01200C0032A1
:01200D0032A0
:01200E00329F
:01200F00329E
:01201000329D
:01201100329C
:01201200329B
:01201300329A
:012014003299
:012015003298
:20201600C01485811405810581AE82AF8390E600E05418C423541F70057CB1FD801C90E681
:2020360000E05418C423541FFBBB01067A617B0180047AC27B028A048B05A81408A60408FF
:20205600A605A81408E624FFFA08E634FFFBA81408A60208A603EA4B70E8EE24FFFAEF3404
:10207600FFFB8A068B07EA4B70D0851481D01422A9
:012086003227
:012087003226
:0D00590075812112211DE582600302005611
:1C20880020F71430F6148883A88220F507E6A88375830022E280F7E49322E02267
:2020A400AAF0FB74FB2581F8E58286F0A9F008A4FCADF0E58389F0A42DFDE435F0FEE582A2
:2020C40086F0A42DFDE5F03EFEE433FFEA89F0A42EFEE5F03FFFE58386F0A42EFEE5F03F89
:2020E400FFE5820886F0A42EFEE5F03FFFEB89F0A42FFFE58386F0A42FFFEA1886F0A42FE4
:10210400FFE582080886F0A42F8EF08D838C82224E
:012114003298
:012115003297
:012116003296
:012117003295
:012118003294
:012119003293
:01211A003292
:01211B003291
:01211C003290
:04211D0075820022A5
:01212100328B
:01212200328A
:012123003289
:012124003288
:00000001FF
