:2000DB00AF8290E600E05418C423541FFEBE020E8F06000000000000000000DEF52290E6EC
:1700FB0000E05418C423541FFEBE01088F06000000DEFB22DFFE22F4
:20011200AD82AE83AFF0750900754709754800754940754501E4F546F54AF54BF54CF54DF4
:20013200F54E758257C007C006C00512136DE582D005D006D0077003F5822285085275539C
:20015200008D548E558F567582571214DEE5827003F582227582012285824C85834D85F0E8
:200172004E750B0075470B754800754940850A4A754B0075450175460075825712136DE549
:0A019200827003F5822275820122BB
:20019C007F14AEB174FB5EF5B1758229C0071200DBD00743B104E5B130E00475820022E593
:2001BC00B120E009EF14FEFF70F5F58222903C617401F075820122AF828F061FEE601BC2AF
:2001DC009990E67BE0F599E5B120E009903C61E4F0758200222099E180FBE5B130E10C7515
:1601FC0082641200DB903C617402F075820122903C61E0F58222C7
:011D8500005D
:04000000020059326F
:01000B0032C2
:03001300020937A8
:01001B0032B2
:0100230032AA
:01002B0032A2
:01003300329A
:01003B003292
:03004300023F0079
:01004B003282
:03005300023F0069
:0600B200C200C201C202FF
:0300D800020056CD
:0300560002093A62
:200212007582002275820122758201227582012275820122AF82BF10030202C7BF110302A8
:2002320002F2BF2003020320BF2103020336BF22030203AABF23030203BDBF24030203F37B
:20025200BF3003020430BF3103020458BF320302048ABF33030204CCBF34030204EFBF40DE
:2002720003020513BF410302054ABF4203020573BF43030205A9BF44030205EFBF4F0302B9
:200292000605BF5003020617BF510302065EBF60030206ACBF61030206FBBF620302072846
:2002B200BF630302073ABF640302074CBF6F0302075E02076190E6BCE0700C90E6BAE0FFAA
:2002D20024FF928702076190E6BCE0FFBF0102800302076190E6BAE0FF24FF9286020761F2
:2002F2007F0090E6BEE0FEC3EF9E5016EF2440FDE434E7FEEF901CF593FC8D828E83F00F1A
:2003120080E090E6BEE0FF90E68BF002076112019CE582600302076190E6A0E0FF74014F61
:20033200F002076112020BAF82BF0102800990E6A0E0FF74014FF090E6BFE0FE7F0090E605
:20035200BEE0FD7C004207EC4206EF4E700302076190E68BE4F000000090E6A0E0FD20E114
:20037200F8759AE7759B4090E68BE0F582C007C0061201D3E582D006D007700C90E6A0E0DC
:20039200FD74014DF002076190E68BE0FD7C00EFC39DFFEE9CFE80B212020BAF8290E740C9
:2003B200EFF090E68B7401F0020761759A40759B00759DE7759E4090E6BCE0F59B7F009020
:2003D200E6BEE0FEC3EF9E500C90E67BE0FE90E67CF00F80EA90E6BEE0FF90E68BF00207A6
:2003F2006190E68BE4F000000090E6A0E0FF20E1F8759AE7759B40759D40759E0090E6BCEA
:20041200E0F59E7F0090E6BEE0FEC3EF9E400302076190E67BE0FE90E67CF00F80E790E62C
:20043200BEE0F50890E74075F000120112E582700990E6A0E0FF74014FF090E6BEE0FF90A2
:20045200E68BF002076190E68BE4F000000090E6A0E0FF20E1F890E6BEE0F50A90E74075BD
:20047200F00012016AE582600302076190E6A0E0FF74014FF002076190E68BE4F0000000E1
:2004920090E6A0E0FF20E1F890E68BE0FFBF3002800C90E6A0E0FF74014FF002076190E775
:2004B2004075F000120D9EE582600302076190E6A0E0FF74014FF002076190E6BCE0FF90E0
:2004D200E6BAE0F5138F82120F36E582600302076190E6A0E0FF74014FF002076190E6BAA3
:2004F200E0FFBFA516120F4DE582600302076190E6A0E0FF74014FF0020761120F5B020757
:200512006190E6BCE0FF90E6BBE0FD7E0090E6BAE07B004EF528EB4DF52990E6BDE0F52A4D
:200532008F82120A1EE582600302076190E6A0E0FF74014FF002076190E6BCE0FF90E6BAD6
:20055200E0F53290E6BBE0F5338F82120B28E582600302076190E6A0E0FF74014FF002070D
:200572006190E6BCE0FF90E6BCE0FEBE020050047E0280027E00EE2FFF90E6BAE0F52E8F75
:2005920082120A7EE582600302076190E6A0E0FF74014FF002076190E6BAE0701CC2AA904E
:2005B200E6BCE0F582120D5975820A1200DBC28BD2AAD287C28602076190E6BAE0FFBF0127
:2005D20010C287C28690E6BCE0F582120D7202076190E6A0E0FF74014FF0020761120CDED5
:2005F200E582600302076190E6A0E0FF74014FF0020761A281E433FF90E740F090E68B744D
:2006120001F002076190E6BDE0FE7F0090E6BCE07C004FF566EC4EF56790E6BEE0FF8F6805
:200632008C69756A40756BE78C6C7582511216FDE582600C90E6BEE0FF90E68BF002076127
:2006520090E6A0E0FF74014FF002076190E68BE4F000000090E6A0E0FF20E1F890E6BDE09F
:20067200FE7F0090E6BCE07C004FF559EC4EF55A90E6BEE0FF8F5B8C5C755D40755EE78CFA
:200692005F758251121667E582600302076190E6A0E0FF74014FF002076190E6BEE0601047
:2006B20090E68BE4F000000090E6A0E0FF20E1F8759AE7759B4090E6BCE0FF90E6BBE0FD00
:2006D2007E0090E6BAE07B004EF56FEB4DF57090E6BEE0F5718F82121013E582707190E632
:2006F200A0E0FF74014FF0806690E6BCE0FF7516407517E77518008F8212103CE582600BB2
:2007120090E6BEE0FF90E68BF0804490E6A0E0FF74014FF0803912108AE582703290E6A0D2
:20073200E0FF74014FF0802712108EE582702090E6A0E0FF74014FF080151210D7E58270B8
:200752000E90E6A0E0FF74014FF0800312114675820122A285B3E43390E7C0F0A200E433F9
:2007720090E7C1F012113FAF8290E7C2EFF090E68F7403F0C2002290E60174C0F090E60033
:20079200E0FF74E75F4410F090E60B7403F000000090E67A7401F075AF0790E67004F075B3
:2007B200800875B2DD75900075B30075A00075B40075B00075B50090E6727418F075B10453
:2007D20075B664758200120D59758201120D59120D8B1209B443B10475982090E61174B050
:2007F200F000000090E61274A2F000000090E61474E2F000000090E6137420F000000090FC
:20081200E6157420F022C0E0C082C083C007C0D075D000D202AF9174EF5FF59190E65D74C1
:2008320001F0D0D0D007D083D082D0E032C021C0E0C0F0C082C083C007C006C005C004C02B
:2008520003C002C001C000C0D075D000758200121A63AF9174EF5FF59190E65D7410F0D046
:20087200D0D000D001D002D003D004D005D006D007D083D082D0F0D0E0D02132C021C0E041
:20089200C0F0C082C083C007C006C005C004C003C002C001C000C0D075D000758201121AFC
:2008B20063AF9174EF5FF59190E65D7420F0D0D0D000D001D002D003D004D005D006D007A8
:2008D200D083D082D0F0D0E0D02132C021C0E0C0F0C082C083C007C006C005C004C003C07F
:2008F20002C001C000C0D075D000AF9174EF5FF59190E659E0FF30E10912076590E659747D
:2009120002F090E65B7401F0D0D0D000D001D002D003D004D005D006D007D083D082D0F0FC
:20093200D0E0D02132D20132120789120FABD2E890E668E0FF74084FF090E65CE0FF740107
:200952004FF0E0FF74104FF0E0FF74204FF090E6587402F090E65A14F0D28AC28BD2AAD2F3
:20097200AF90E680E0FF20E11890E680E0FF740A4FF09005DC121C3490E680E0FF74F75FC4
:20099200F0D28712118C100202800312176210010280F0120CDE120F5B121146D286D2009D
:0209B20080E1E2
:0C00B8007522B975231C7524BF75251C2A
:2009B400120CDE756A26756B00756C407566087567007568027569007582511216FDE582D1
:2009D400700122741BB5260774CAB52702800122AE22AF238E6A8F6B756C0075660A75670A
:2009F400007568067569007582511216FDAE24AF258E6A8F6B756C00756610756700756898
:200A1400067569007582510216FDE582FF24FC500475820022BF0200500FC3E52894C2E563
:200A3400299401500475820022E52A600AEF2FFE74584EF52B8008EF2FFF74404FF52BAF31
:200A540029740F5FF52CAE287F008E2D754C2B8F4D754E40E4F545F546F547F548F54975F6
:200A74004A03F54B75826002136DAF828F057E00ED24FEFDEE34FFFEC374019D74808EF047
:200A940063F08095F0400674F6252E40047582002274042524FDE43525FEEF24FEFC2DF561
:200AB40082E43EF583E0252EF52E74042522FDE43523FEEC2DF582E43EF583E0FE7D0085B0
:200AD4002E6F8D708E828D83C007121B93AD82AE83D007EEC423CDC423541F6DCD541FCD14
:200AF4006DCDFEEF2FFF74404FF52F8E07740F5FF5307E008D31754C2F8E4D754E40E4F5E7
:200B140045F546F547F548F549754A03F54B75826002136DE582FF24FE401EEF70047E7078
:200B340080027E18C3E5329E400FEF70047EF080027E68C3EE9532500475820022EF2FFE88
:200B54002522F582E43523F583E0FCA3E0FD7B007A0085326F8B708B718B728C828D838BFB
:200B7400F0EAC007C006121BB2AA82AB83ACF0FDD006D00774802AE43BFBE43CFCE43DEE18
:200B94002524F582E43525F5838B028C03E0FCA3E0FDECC39AF537ED9BF538EF75F002A42F
:200BB4002400FB743C35F0FF8B828F83E0F539A3E0F53AAC37AD38E539C39CF537E53A9D22
:200BD400F538C374808533F063F08095F0400475820022E538FD30E706C3E49533F53343AF
:200BF4000640E53745387003020CDAC374808533F063F08095F0501DE533FC3395E0FDC307
:200C1400E5379CE53864808DF063F08095F05020853733801BE533FC3395E0FDC3EC953704
:200C3400ED64808538F063F08095F05003853733C0068B828F83E0F539A3E0F53AE533FAD1
:200C54003395E0FE8A048E05E539C39CFCE53A9DFD8B828F83ECF0EDA3F0E537C39AF53767
:200C7400E5389EF538C3EC94C2ED9401D0065006D286758200228E348B828F83E0A3E0FC14
:200C9400740F5CF5358B828F83E0FCA3E07D008C36754C348D4D754E40E4F545F546F54713
:200CB400F548F549754A03F54B758260C007C006C00312136DE582D003D006D0076003021E
:200CD4000BF67582002275820122753B0675473B754800754940754501E4F546F54AF54B0B
:200CF400F54CF54DF54E75820012136DE5827003F5822275543C75550075564075520975FF
:200D140053007582601214DEE5827003F58222740F553DFE7F00AC3E7D00EC4207ED42063B
:200D3400903C00EFF0EEA3F0740F5543FE7F00AC447D00EC4207ED4206903C02EFF0EEA3C6
:200D5400F075820122AF82C283000000EF7004C2828005BF0102C284000000D28322AF8223
:170D7400C283000000EF7004D2828005BF0102D284000000D2832258
:0C1CB900EB135A28867BC9151C1310FD84
:200D8B00AFB174DF5FF5B175C000901CC575F080020D9E85820D85830E85F00FE5B130E5FF
:200DAB0004758200223081047582002279007A007B007C008C11751030E51014250DFDE4E5
:200DCB00350EFEAF0F8D828E838FF0121C8CF512ECC313FCEB13FBEA13FAE913F9E51230DF
:200DEB00E20A78007D007E807F00800878007D007E007F00E84201ED4202EE4203EF42044C
:200E0B00E5122512F512ECC313FCEB13FBEA13FAE913F9E51230E20A78007D007E807F006A
:200E2B00800878007D007E007F00E84201ED4202EE4203EF4204E5122512F512ECC313FC76
:200E4B00EB13FBEA13FAE913F9E51230E20A78007D007E807F00800878007D007E007F00A3
:200E6B00E84201ED4202EE4203EF4204AE107F001EBEFF011FEE54077047AF110511EF2482
:200E8B0034F582E4343CF5838900E4E8F0AF110511EF2434F582E4343CF5838A058D00E827
:200EAB00F0AF110511EF2434F582E4343CF5837D008B067F008E00E8F079007A007B007CFA
:200ECB00001510E4B510028003020DC4759A3C759B3490E600E0FFFE74E75EF07E00C2C155
:200EEB0090E67BE0F5C130C1FD0EBE120040EF75820AC0071200DBD00790E600EFF07F0005
:200F0B00EF2404FDE4343CFEEF250DFAE4350EFBAC0F8A828B838CF0121C8CFA8D828E83FE
:200F2B00F00FBF300040D975820122E5822404F582E4343CF583E513F0903C0475F0000294
:200F4B000D9E3081047582002243B12075820122AFB174DF5FF5B1901CC575F080020D9E24
:201CC50004040404040404040404040404040404040404040404040404040404040404047F
:101CE50004040404040404040404040404040404AF
:203E000012010002FFFFFF40091201480100010200010A060002FFFFFF4001000902270065
:203E200001010080FA0904000003FFFFFF00070581030002080705020200020007058602B9
:033E40000002007D
:203E44000902270001010080FA0904000004FFFFFF0007058103400014070502024000006E
:073E64000705860240000083
:203E6C00040309042A0377006F006A00630069006500630068006B003800400067006D00F2
:203E8C00610069006C002E0063006F006D0014034E0056004D0065006D00500072006F0068
:043EAC0067000000AB
:0200C400C20375
:200F6B00903C57E0FEA3E0FF759A3C759B467D00903C56E0FCC3ED9C50258E04EC139204DF
:200F8B0090E67BE02400F582E43440F583A204E433443EFCF0EFC313CE13CEFF0D80D122EC
:200FAB0090E60174C2F090E6F574FFF090E6F374C0F090E6C3E4F090E6C1F090E6C2740747
:200FCB00F090E6C0744EF090E6F4E4F090E60C04F0759A1D759B05759DE4759E007F009021
:200FEB00E67BE0FE90E67CF00FBF800040F190E67174FFF0F5B490E672E0FF74804FF04316
:20100B00B68090E6C6E4F022AF82BF0020759D3C759E467F00C3EF9571500C90E67BE0FE44
:20102B0090E67CF00F80EE903C56E571F075820122AF82E5146004758200228F06BE0002C8
:20104B008005BF0117800A90E6C5E4F0000000800F90E6C57401F0000000800475820022C4
:20106B00E5BEE5BB30E7FBAD16AE17AF188D828E838FF0E5BF121B771211467582012275E2
:20108B00820022E51460047582002290E6D07402F000000090E6D1E4F000000090E6C274B8
:2010AB0006F000000090E6047480F000000090E6047406F000000090E61A7408F0000000F1
:2010CB0075BB06751401D20375820122E514600475820022758900758E01C2A990E6C4E455
:2010EB00F000000090E6C5E4F0903C59F0A3F0903C57F0A3F090E6C27406F000000090E680
:20110B00047480F000000090E6047482F000000090E604E4F000000090E6497482F0000089
:20112B000090E6497482F000000075140275150075820122A203E433F5822290E6F574FF9D
:20114B00F090E6C27407F090E6C4E4F000000090E6C5E4F0000000903C57E4F0A3F090E6D4
:20116B00047480F000000090E618E4F000000090E61AE4F000000090E604E4F0F514C2039A
:20118B0022E4B51401227401B5140280097402B51402802C2222E5BB20E70122903C57E08B
:2011AB002401F0A3E03400F0120F6B90E6D07402F000000090E6D1E4F000000075BB0622BD
:2011CB00E51524FB500122E51575F003A49011DC730211EB02123202125B0212790212CD61
:2011EB00E5AA30E0012200000090E6047480F000000090E6047482F000000090E690E0FE80
:20120B007F0000000090E691E0FD7C00903C5BED4FF0EC4EA3F0903C5DE4F0A3F0903C5F09
:20122B00F0751501D2032290E6F3E0FF747F5FF0903C5DE0FEA3E0FF8E8274F02FF583E023
:20124B00F5BE758C00758A00C28DD28C75150222208D0122C28C90E6F3E0FF74804FF0E5F7
:20126B00BB30E7FB75822D1200DB75150322E5BEE5BB30E7FBAFBF903C5FE02401F0903C27
:20128B005DE0FDA3E0FE8D8274F02EF583E0FCEFB504028008903C5FE0FFBF0A2190E6F304
:2012AB00E0FF747F5FF08D8274F02EF583E0F5BE758C00758A00C28DD28C7515042275156F
:2012CB000122208D0122903C5FE014F0E0600302136AC28C90E6F3E0FF74804FF0E5BB30A6
:2012EB00E7FB903C59E02401F0A3E03400F0903C5AE0FFBF0216903C59E4F0A3F0903C57B5
:20130B00E02401F0A3E03400F0120F6B903C5AE0FF90E6C4F0000000903C59E0FF90E6C52C
:20132B00F0000000903C5DE02401F0A3E03400F0903C5DE0FEA3E0FF903C5BE0FCA3E0FDE1
:20134B00EEB50418EFB5051490E6497482F000000090E604E4F0F515C2038003751501C274
:02136B008D22D1
:201CF500616D32370000000000000000000000000E013F010101010700020100000000003C
:201D1500020206060606060600003F000000003F6411643F010101070203020100000000DE
:201D35002624260606060606003F003F0000003F0B01023F01010107000A000100000000E1
:201D550002060606060606060000003F0000003F01010101010101070000000000000000B6
:101D75000606060606060606000000000000003FEF
:20136D00AF82E54A2545F54FE54B3546F550755102903C60E4F0EF2FFF903C60E0E060042D
:20138D007582002290E678E0FB74804BF0E0FB30E20C90000AC007121C34D00780DB90E6CB
:2013AD0079EFF090E678E0FB20E007903C60E0E060F1903C60E0E060047582002290E67864
:2013CD00E0FB20E2B490E678E0FB20E13B90E678E0FB74404BF090E678E0FB30E607903C00
:2013ED0060E0E060F1903C60E0E0600475820022E55114FB8B517003F5822290000AC00778
:20140D00121C34D0070213867A007B00C3EA954FEB955040030214B7C3EA9545EB954650E8
:20142D0016EA2547F8EB3548F9AC49888289838CF0121C8CFC801DEAC39545F8EB9546F9C2
:20144D00E8254CF8E9354DF9AE4E888289838EF0121C8CFC90E679ECF00ABA00010B90E673
:20146D0078E0FE20E007903C60E0E060F1903C60E0E060047582002290E678E0FE30E2037B
:20148D0002138690E678E0FE30E10302141990E678E0FF74404FF090E678E0FF30E607905B
:2014AD003C60E0E060F17582002290E678E0FF74404FF090E678E0FF30E607903C60E0E0C3
:2014CD0060F1903C60E0E060047582002275820122AF82903C60E4F0EF2FFF43070174011D
:2014ED00B55208E4B5530474018001E4FE903C60E0E06004758200227C007D0090E678E0D8
:20150D00FB74804BF0E0FB30E21090000AC007C006121C34D006D00780D390E679EFF090B0
:20152D00E678E0FB20E007903C60E0E060F1903C60E0E060047582002290E678E0FB20E2ED
:20154D00AC90E678E0FB20E11C90E678E0FB74404BF090E678E0FB30E607903C60E0E06002
:20156D00F175820022EE600990E678E0FB74204BF090E679E0E4F557F55874012557F8E44C
:20158D003558F9C3E89552E99553506A90E678E0F920E007903C60E0E060F1903C60E0E0A4
:2015AD0060047582002290E678E0F930E2030214FA74022557F8E43558F9E8B5520DE9B5C7
:2015CD00530990E678E0F9742049F0A857A9580557E4B557020558AC57AD58E82554F8E919
:2015ED003555F9AB5690E679E0FA888289838BF0121B7702158790E678E0FB20E007903C22
:20160D0060E0E060F1903C60E0E060047582002290E678E0FB30E2030214FA90E678E0FF28
:20162D0074404FF0EC2554FCED3555FDAF5690E679E0FE8C828D838FF0121B7790E678E0F4
:20164D00FF30E607903C60E0E060F1903C60E0E060047582002275820122858260E4F564FD
:20166D00F565AB59AC5AC3E564955BE565955C40030216F97A0090E678E0FF30E4067A0192
:20168D008C078F618A070AEF2461F98B06A7068A070AEF2461F9AE64AF650564E4B56402DE
:2016AD000565EE255DFEEF355EFFAD5F8E828F838DF0121C8CF78A45754600754761754804
:2016CD0000754940E4F54AF54BF54CF54DF54E856082C004C00312136DE582D003D00470D8
:2016ED0003F582220BBB00010C02167375820122AF827E0090E678E0FD30E4067E01AD67A2
:20170D008D6D8E050EED246DF9AC66A7048E4575460075476D754800754940E4F54AF54B18
:20172D00F54CF54DF54E8F82C00712136DE582D0077003F58222856852856953856A5485DA
:15174D006B55856C568F821214DEE5827003F5822275820122DE
:06008800E478FFF6D8FD4C
:1200C600751A00751B00751C44751D3E751E1C751F3EE3
:2017620090E6B9E0FF24F45003021868EF240A83F582EF241083F583E47394AA68C06868AA
:20178200D668E6FD15491717181718181718171718181218E2E582600302187E90E6A0E04A
:2017A200FF74014FF002187E12196FE582600302187E90E6A0E0FF74014FF002187E121974
:2017C200DEE582600302187E90E6A0E0FF74014FF002187E120212E582600302187E121AD2
:2017E2008E02187E12021EAF8290E740EFF090E68AE4F090E68B04F002187E90E6BAE0F562
:2018020082120222E582707490E6A0E0FF74014FF0806990E6BCE0FF756F19757000757158
:20182200408F82120216E582700B90E6A0E0FF74014FF0804790E740E519F090E68AE4F060
:2018420090E68B04F0803590E6BCE0FF90E6BAE0F56F8F8212021AE582702190E6A0E0FF2B
:2018620074014FF0801690E6B9E0F582120226E582700990E6A0E0FF74014FF090E6A0E0DD
:20188200FF74804FF022AF828F0653067FEE24F750030218DEEE240A83F582EE240D83F553
:2018A20083E473B7BBCEDED2DED6DEDA18181818181818181890E6A022EF30E7067EA27F35
:2018C200E680047EA17FE68E828F832290E6A32290E6A42290E6A52290E6A6229000002230
:2018E20090E6B8E0FFBF8002801FBF81028005BF8273803490E740E4F090E741F090E68A97
:20190200F090E68B7402F08060E51B25E0FFE51A420790E740EFF090E741E4F090E68AF030
:2019220090E68B7402F0804190E6BCE0F582121888AE82AF838E048F05EE4F7003F5822271
:201942008C828D83E0FC30E0047F0180027F0090E740EFF090E741E4F090E68AF090E68BE3
:201962007402F08004758200227582012290E6B8E0FF6005BF0258801B90E6BAE0FFBF0153
:2019820005751B00805290E6BAE0FFBF060280487582002290E6BAE0703190E6BCE0F582ED
:2019A200121888AE82AF83E0FD5305FE8E828F83EDF090E6BCE0FF30E70343071053071FE1
:2019C20090E683EFF074204FF0800D7582002290E6B9E0F5820202267582012290E6B8E0DC
:2019E200FF6005BF026E802690E6BAE0FFBF0203021A5F90E6BAE0FFBF0105751B01805D1C
:201A020090E6BAE0FFBF060280537582002290E6BAE0703C90E6BCE0F582121888AE82AF2C
:201A220083EE4F7003F582228E828F83E0FD4305018E828F83EDF090E6BCE0FF30E7034323
:201A4200071053071F90E683EFF074204FF0800D7582002290E6B9E0F582020226758201FB
:201A620022AF82D20510AF02C205EF600E751C1C751D3E751E44751F3E800C751C44751D3C
:201A82003E751E1C751F3EA20592AF2290E6BBE0FFBF01028019BF02028029BF030280332D
:201AA200BF0603021B49BF0703021B5E021B6D7E007F3E8F0690E6B3EEF07E007F3E90E6A0
:201AC200B4EEF022AF1D90E6B3EFF0AE1C90E6B4EEF0227D6C7E3E7F8090E6BAE0F56F7BF5
:201AE200008B020BEAB56F0280428D008E018F028D828E838FF0121C8C28F8E439F98805B1
:201B020089068A0774012DF9E43EFA8F0489828A838CF0121C8CF9B9030280067D007E00D3
:201B22007F00ED4E6006C3E56F9B50B5ED4E600D8E0790E6B3EFF090E6B4EDF02290E6A048
:201B4200E0FF74014FF0227E127F3E8F0690E6B3EEF07E127F3E90E6B4EEF022AF1F90E62A
:151B6200B3EFF0AE1E90E6B4EEF02290E6A0E0FF74014FF0221B
:200066007901E94400601B7A01901D85786175923CE493F2A308B800020592D9F4DAF2751C
:0200860092FFE7
:1B1B770020F71130F6138883A88220F509F6A8837583002280FEF280F5F0226D
:203F000002081800021CB700021CAC00021CB00002083F0002088E00021CA900021C280024
:203F2000021C2A00021C2B00021C2C00021C2F00021CB600021CB800021B9200021BB10032
:203F40000208DD00021C2800021CA800021CAA00021CAB00021CAD00021CAE00021CAF0079
:203F6000021C8B00021C2800021C2800021C2800021C2900021C2D00021C3000021C320096
:203F8000021C2E00021C3100021C3300021C8A00021C2000021C2200021C2400021C260089
:183FA000021C2100021C2300021C2500021C2700021BB000021CB50061
:011B92003220
:1D1B9300E582856FF0A4C582C0F08570F0A4D0F025F0C583856FF0A42583F58322DF
:011BB0003202
:011BB1003201
:201BB200AAF0FBE582856FF0A4FCADF0E583856FF0A42DFDE435F0FEE5828570F0A42DFDBB
:201BD200E5F03EFEE433FFEA856FF0A42EFEE5F03FFFE5838570F0A42EFEE5F03FFFE58284
:201BF2008571F0A42EFEE5F03FFFEB856FF0A42FFFEA8570F0A42FFFE5838571F0A42FFFA8
:0E1C1200E5828572F0A42F8EF08D838C8222E5
:011C20003291
:011C21003290
:20008E007800E84400600A790075923CE4F309D8FC7861E84400600C7901903C00E4F0A3A6
:0400AE00D8FCD9FAA7
:011C2200328F
:011C2300328E
:011C2400328D
:011C2500328C
:011C2600328B
:011C2700328A
:011C28003289
:011C29003288
:011C2A003287
:011C2B003286
:011C2C003285
:011C2D003284
:011C2E003283
:011C2F003282
:011C30003281
:011C31003280
:011C3200327F
:011C3300327E
:201C3400AE82AF8390E600E05418C423541FFD70057CB1FD801C90E600E05418C423541FBE
:201C5400FBBB01067A617B0180047AC27B028A048B058C6F8D70156F74FFB56F021570E582
:161C74006F457070F1EE24FFFAEF34FFFB8A068B07EA4B70DD22E7
:011C8A003227
:011C8B003226
:0D005900758172121CB1E582600302005631
:1C1C8C0020F71430F6148883A88220F507E6A88375830022E280F7E49322E02267
:011CA8003209
:011CA9003208
:011CAA003207
:011CAB003206
:011CAC003205
:011CAD003204
:011CAE003203
:011CAF003202
:011CB0003201
:041CB1007582002216
:011CB50032FC
:011CB60032FB
:011CB70032FA
:011CB80032F9
:00000001FF
