:2000D900AF8290E600E05418C423541FFEBE020E8F06000000000000000000DEF52290E6EE
:1700F90000E05418C423541FFEBE01088F06000000DEFB22DFFE22F6
:20011000AD82AE83AFF0750900754709754800754940754501E4F546F54AF54BF54CF54DF6
:20013000F54E758257C007C006C005120F84E582D005D006D0077003F5822285085275538B
:20015000008D548E558F567582571210F5E5827003F582227582012285824C85834D85F0D7
:200170004E750B0075470B754800754940850A4A754B00754501754600758257120F84E538
:0A019000827003F5822275820122BD
:20019A007F14AEB174FB5EF5B1758229C0071200D9D00743B104E5B130E00475820022E597
:2001BA00B120E009EF14FEFF70F5F58222903C477401F075820122AF828F061FEE601BC2CB
:2001DA009990E67BE0F599E5B120E009903C47E4F0758200222099E180FBE5B130E10C7531
:1601FA0082641200D9903C477402F075820122903C47E0F58222FF
:01191C0000CA
:04000000020059326F
:01000B0032C2
:03001300020935AA
:01001B0032B2
:0100230032AA
:01002B0032A2
:01003300329A
:01003B003292
:03004300023F0079
:01004B003282
:03005300023F0069
:0600B200C200C201C202FF
:0300D600020056CF
:0300560002093864
:200210007582002275820122758201227582012275820122AF82BF10030202C5BF110302AC
:2002300002F0BF200302031EBF2103020334BF22030203A8BF23030203BBBF24030203F189
:20025000BF300302042EBF3103020456BF3203020488BF33030204CABF34030204EDBF40EA
:2002700003020511BF4103020548BF4203020571BF43030205A7BF44030205EDBF4F0302C5
:200290000603BF5003020615BF510302065CBF60030206AABF61030206F9BF620302072654
:2002B000BF6303020738BF640302074ABF6F0302075C02075F90E6BCE0700C90E6BAE0FFB4
:2002D00024FF928702075F90E6BCE0FFBF0102800302075F90E6BAE0FF24FF928602075FFA
:2002F0007F0090E6BEE0FEC3EF9E5016EF2440FDE434E7FEEF90190C93FC8D828E83F00F08
:2003100080E090E6BEE0FF90E68BF002075F12019AE582600302075F90E6A0E0FF74014F69
:20033000F002075F120209AF82BF0102800990E6A0E0FF74014FF090E6BFE0FE7F0090E60B
:20035000BEE0FD7C004207EC4206EF4E700302075F90E68BE4F000000090E6A0E0FD20E118
:20037000F8759AE7759B4090E68BE0F582C007C0061201D1E582D006D007700C90E6A0E0E0
:20039000FD74014DF002075F90E68BE0FD7C00EFC39DFFEE9CFE80B2120209AF8290E740CF
:2003B000EFF090E68B7401F002075F759A40759B00759DE7759E4090E6BCE0F59B7F009024
:2003D000E6BEE0FEC3EF9E500C90E67BE0FE90E67CF00F80EA90E6BEE0FF90E68BF00207A8
:2003F0005F90E68BE4F000000090E6A0E0FF20E1F8759AE7759B40759D40759E0090E6BCEE
:20041000E0F59E7F0090E6BEE0FEC3EF9E400302075F90E67BE0FE90E67CF00F80E790E630
:20043000BEE0F50890E74075F000120110E582700990E6A0E0FF74014FF090E6BEE0FF90A6
:20045000E68BF002075F90E68BE4F000000090E6A0E0FF20E1F890E6BEE0F50A90E74075C1
:20047000F000120168E582600302075F90E6A0E0FF74014FF002075F90E68BE4F0000000E9
:2004900090E6A0E0FF20E1F890E68BE0FFBF3002800C90E6A0E0FF74014FF002075F90E779
:2004B0004075F000120D9CE582600302075F90E6A0E0FF74014FF002075F90E6BCE0FF90E8
:2004D000E6BAE0F5138F82120F34E582600302075F90E6A0E0FF74014FF002075F90E6BAAB
:2004F000E0FFBFA516120F4BE582600302075F90E6A0E0FF74014FF002075F120F59020761
:200510005F90E6BCE0FF90E6BBE0FD7E0090E6BAE07B004EF528EB4DF52990E6BDE0F52A51
:200530008F82120A1CE582600302075F90E6A0E0FF74014FF002075F90E6BCE0FF90E6BADE
:20055000E0F53290E6BBE0F5338F82120B26E582600302075F90E6A0E0FF74014FF0020713
:200570005F90E6BCE0FF90E6BCE0FEBE020050047E0280027E00EE2FFF90E6BAE0F52E8F79
:2005900082120A7CE582600302075F90E6A0E0FF74014FF002075F90E6BAE0701CC2AA9056
:2005B000E6BCE0F582120D5775820A1200D9C28BD2AAD287C28602075F90E6BAE0FFBF012F
:2005D00010C287C28690E6BCE0F582120D7002075F90E6A0E0FF74014FF002075F120CDCDF
:2005F000E582600302075F90E6A0E0FF74014FF002075FA281E433FF90E740F090E68B7453
:2006100001F002075F90E6BDE0FE7F0090E6BCE07C004FF566EC4EF56790E6BEE0FF8F6809
:200630008C69756A40756BE78C6C758251121314E582600C90E6BEE0FF90E68BF002075F17
:2006500090E6A0E0FF74014FF002075F90E68BE4F000000090E6A0E0FF20E1F890E6BDE0A3
:20067000FE7F0090E6BCE07C004FF559EC4EF55A90E6BEE0FF8F5B8C5C755D40755EE78CFC
:200690005F75825112127EE582600302075F90E6A0E0FF74014FF002075F90E6BEE060103A
:2006B00090E68BE4F000000090E6A0E0FF20E1F8759AE7759B4090E6BCE0FF90E6BBE0FD02
:2006D0007E0090E6BAE07B004EF51BEB4DF51C90E6BEE0F51D8F82120F6AE582707190E6DA
:2006F000A0E0FF74014FF0806690E6BCE0FF751B40751CE7751D008F82120F6EE582600B74
:2007100090E6BEE0FF90E68BF0804490E6A0E0FF74014FF08039120F72E582703290E6A0ED
:20073000E0FF74014FF08027120F76E582702090E6A0E0FF74014FF08015120F7AE5827031
:200750000E90E6A0E0FF74014FF08003120F8275820122A285B3E43390E7C0F0A200E433C1
:2007700090E7C1F0120F7EAF8290E7C2EFF090E68F7403F0C2002290E60174C0F090E600F8
:20079000E0FF74E75F4410F090E60B7403F000000090E67A7401F075AF0790E67004F075B5
:2007B000800875B2DD75900075B30075A00075B40075B00075B50090E6727418F075B10455
:2007D00075B664758200120D57758201120D57120D891209B243B10475982090E61174B05A
:2007F000F000000090E61274A2F000000090E61474E2F000000090E6137420F000000090FE
:20081000E6157420F022C0E0C082C083C007C0D075D000D202AF9174EF5FF59190E65D74C3
:2008300001F0D0D0D007D083D082D0E032C021C0E0C0F0C082C083C007C006C005C004C02D
:2008500003C002C001C000C0D075D00075820012167AAF9174EF5FF59190E65D7410F0D035
:20087000D0D000D001D002D003D004D005D006D007D083D082D0F0D0E0D02132C021C0E043
:20089000C0F0C082C083C007C006C005C004C003C002C001C000C0D075D000758201121602
:2008B0007AAF9174EF5FF59190E65D7420F0D0D0D000D001D002D003D004D005D006D00793
:2008D000D083D082D0F0D0E0D02132C021C0E0C0F0C082C083C007C006C005C004C003C081
:2008F00002C001C000C0D075D000AF9174EF5FF59190E659E0FF30E10912076390E6597481
:2009100002F090E65B7401F0D0D0D000D001D002D003D004D005D006D007D083D082D0F0FE
:20093000D0E0D02132D20132120787120F69D2E890E668E0FF74084FF090E65CE0FF74014D
:200950004FF0E0FF74104FF0E0FF74204FF090E6587402F090E65A14F0D28AC28BD2AAD2F5
:20097000AF90E680E0FF20E11890E680E0FF740A4FF09005DC12184B90E680E0FF74F75FB3
:20099000F0D287120F83100202800312137910010280F0120CDC120F59120F82D286D20061
:0209B00080E1E4
:0C00B8007522D07523187524D675251804
:2009B200120CDC756A26756B00756C40756608756700756802756900758251121314E582C1
:2009D200700122741BB5260774CAB52702800122AE22AF238E6A8F6B756C0075660A75670C
:2009F20000756806756900758251121314AE24AF258E6A8F6B756C00756610756700756886
:200A120006756900758251021314E582FF24FC500475820022BF0200500FC3E52894C2E551
:200A3200299401500475820022E52A600AEF2FFE74584EF52B8008EF2FFF74404FF52BAF33
:200A520029740F5FF52CAE287F008E2D754C2B8F4D754E40E4F545F546F547F548F54975F8
:200A72004A03F54B758260020F84AF828F057E00ED24FEFDEE34FFFEC374019D74808EF036
:200A920063F08095F0400674F6252E40047582002274042524FDE43525FEEF24FEFC2DF563
:200AB20082E43EF583E0252EF52E74042522FDE43523FEEC2DF582E43EF583E0FE7D0085B2
:200AD2002E1B8D1C8E828D83C0071217AAAD82AE83D007EEC423CDC423541F6DCD541FCDAB
:200AF2006DCDFEEF2FFF74404FF52F8E07740F5FF5307E008D31754C2F8E4D754E40E4F5E9
:200B120045F546F547F548F549754A03F54B758260020F84E582FF24FE401EEF70047E7067
:200B320080027E18C3E5329E400FEF70047EF080027E68C3EE9532500475820022EF2FFE8A
:200B52002522F582E43523F583E0FCA3E0FD7B007A0085321B8B1C8B1D8B1E8C828D838B4D
:200B7200F0EAC007C0061217C9AA82AB83ACF0FDD006D00774802AE43BFBE43CFCE43DEE07
:200B92002524F582E43525F5838B028C03E0FCA3E0FDECC39AF537ED9BF538EF75F002A431
:200BB2002400FB743C35F0FF8B828F83E0F539A3E0F53AAC37AD38E539C39CF537E53A9D24
:200BD200F538C374808533F063F08095F0400475820022E538FD30E706C3E49533F53343B1
:200BF2000640E53745387003020CD8C374808533F063F08095F0501DE533FC3395E0FDC30B
:200C1200E5379CE53864808DF063F08095F05020853733801BE533FC3395E0FDC3EC953706
:200C3200ED64808538F063F08095F05003853733C0068B828F83E0F539A3E0F53AE533FAD3
:200C52003395E0FE8A048E05E539C39CFCE53A9DFD8B828F83ECF0EDA3F0E537C39AF53769
:200C7200E5389EF538C3EC94C2ED9401D0065006D286758200228E348B828F83E0A3E0FC16
:200C9200740F5CF5358B828F83E0FCA3E07D008C36754C348D4D754E40E4F545F546F54715
:200CB200F548F549754A03F54B758260C007C006C003120F84E582D003D006D0076003020D
:200CD2000BF47582002275820122753B0675473B754800754940754501E4F546F54AF54B0F
:200CF200F54CF54DF54E758200120F84E5827003F5822275543C75550075564075520975EE
:200D120053007582601210F5E5827003F58222740F553DFE7F00AC3E7D00EC4207ED42062A
:200D3200903C00EFF0EEA3F0740F5543FE7F00AC447D00EC4207ED4206903C02EFF0EEA3C8
:200D5200F075820122AF82C283000000EF7004C2828005BF0102C284000000D28322AF8225
:170D7200C283000000EF7004D2828005BF0102D284000000D283225A
:0C18D000EB135A28867BC9151C1310FD71
:200D8900AFB174DF5FF5B175C0009018DC75F080020D9C85820D85830E85F00FE5B130E5F0
:200DA90004758200223081047582002279007A007B007C008C11751030E51014250DFDE4E7
:200DC900350EFEAF0F8D828E838FF01218A3F512ECC313FCEB13FBEA13FAE913F9E51230CE
:200DE900E20A78007D007E807F00800878007D007E007F00E84201ED4202EE4203EF42044E
:200E0900E5122512F512ECC313FCEB13FBEA13FAE913F9E51230E20A78007D007E807F006C
:200E2900800878007D007E007F00E84201ED4202EE4203EF4204E5122512F512ECC313FC78
:200E4900EB13FBEA13FAE913F9E51230E20A78007D007E807F00800878007D007E007F00A5
:200E6900E84201ED4202EE4203EF4204AE107F001EBEFF011FEE54077047AF110511EF2484
:200E890034F582E4343CF5838900E4E8F0AF110511EF2434F582E4343CF5838A058D00E829
:200EA900F0AF110511EF2434F582E4343CF5837D008B067F008E00E8F079007A007B007CFC
:200EC900001510E4B510028003020DC2759A3C759B3490E600E0FFFE74E75EF07E00C2C159
:200EE90090E67BE0F5C130C1FD0EBE120040EF75820AC0071200D9D00790E600EFF07F0009
:200F0900EF2404FDE4343CFEEF250DFAE4350EFBAC0F8A828B838CF01218A3FA8D828E83ED
:200F2900F00FBF300040D975820122E5822404F582E4343CF583E513F0903C0475F0000296
:200F49000D9C3081047582002243B12075820122AFB174DF5FF5B19018DC75F080020D9C17
:2018DC0004040404040404040404040404040404040404040404040404040404040404046C
:1018FC00040404040404040404040404040404049C
:203E000012010002FFFFFF40091201480100010200010A060002FFFFFF4001000902270065
:203E200001010080FA0904000003FFFFFF00070581030002080705020200020007058602B9
:033E40000002007D
:203E44000902270001010080FA0904000004FFFFFF0007058103400014070502024000006E
:073E64000705860240000083
:203E6C00040309042A0377006F006A00630069006500630068006B003800400067006D00F2
:203E8C00610069006C002E0063006F006D0014034E0056004D0065006D00500072006F0068
:043EAC0067000000AB
:1B0F690022758200227582002275820022758200227582002275820022222271
:10190C0064756D6D7900000000000000000000009F
:200F8400AF82E54A2545F54FE54B3546F550755102903C46E4F0EF2FFF903C46E0E060044E
:200FA4007582002290E678E0FB74804BF0E0FB30E20C90000AC00712184BD00780DB90E6A5
:200FC40079EFF090E678E0FB20E007903C46E0E060F1903C46E0E060047582002290E67885
:200FE400E0FB20E2B490E678E0FB20E13B90E678E0FB74404BF090E678E0FB30E607903CED
:2010040046E0E060F1903C46E0E0600475820022E55114FB8B517003F5822290000AC00798
:2010240012184BD007020F9D7A007B00C3EA954FEB955040030210CEC3EA9545EB9546509C
:2010440016EA2547F8EB3548F9AC49888289838CF01218A3FC801DEAC39545F8EB9546F99C
:20106400E8254CF8E9354DF9AE4E888289838EF01218A3FC90E679ECF00ABA00010B90E64D
:2010840078E0FE20E007903C46E0E060F1903C46E0E060047582002290E678E0FE30E2039C
:2010A400020F9D90E678E0FE30E10302103090E678E0FF74404FF090E678E0FF30E6079022
:2010C4003C46E0E060F17582002290E678E0FF74404FF090E678E0FF30E607903C46E0E0E4
:2010E40060F1903C46E0E060047582002275820122AF82903C46E4F0EF2FFF43070174013E
:20110400B55208E4B5530474018001E4FE903C46E0E06004758200227C007D0090E678E0DE
:20112400FB74804BF0E0FB30E21090000AC007C00612184BD006D00780D390E679EFF0908A
:20114400E678E0FB20E007903C46E0E060F1903C46E0E060047582002290E678E0FB20E20E
:20116400AC90E678E0FB20E11C90E678E0FB74404BF090E678E0FB30E607903C46E0E06009
:20118400F175820022EE600990E678E0FB74204BF090E679E0E4F557F55874012557F8E439
:2011A4003558F9C3E89552E99553506A90E678E0F920E007903C46E0E060F1903C46E0E0C5
:2011C40060047582002290E678E0F930E20302111174022557F8E43558F9E8B5520DE9B5A0
:2011E400530990E678E0F9742049F0A857A9580557E4B557020558AC57AD58E82554F8E906
:201204003555F9AB5690E679E0FA888289838BF012178E02119E90E678E0FB20E007903CE8
:2012240046E0E060F1903C46E0E060047582002290E678E0FB30E20302111190E678E0FF35
:2012440074404FF0EC2554FCED3555FDAF5690E679E0FE8C828D838FF012178E90E678E0CE
:20126400FF30E607903C46E0E060F1903C46E0E060047582002275820122858260E4F5641E
:20128400F565AB59AC5AC3E564955BE565955C40030213107A0090E678E0FF30E4067A016B
:2012A4008C078F618A070AEF2461F98B06A7068A070AEF2461F9AE64AF650564E4B56402CB
:2012C4000565EE255DFEEF355EFFAD5F8E828F838DF01218A3F78A457546007547617548DE
:2012E40000754940E4F54AF54BF54CF54DF54E856082C004C003120F84E582D003D00470B2
:2013040003F582220BBB00010C02128A75820122AF827E0090E678E0FD30E4067E01AD677B
:201324008D6D8E050EED246DF9AC66A7048E4575460075476D754800754940E4F54AF54B05
:20134400F54CF54DF54E8F82C007120F84E582D0077003F58222856852856953856A5485B4
:151364006B55856C568F821210F5E5827003F5822275820122B8
:06008800E478FFF6D8FD4C
:1200C40075150075160075174475183E75191C751A3E03
:2013790090E6B9E0FF24F4500302147FEF240A83F582EF241083F583E473ABC17FD77F7FFA
:20139900ED7FFD142C601313141314141314131414141214F9E582600302149590E6A0E0B6
:2013B900FF74014FF0021495121586E582600302149590E6A0E0FF74014FF0021495121519
:2013D900F5E582600302149590E6A0E0FF74014FF0021495120210E5826003021495121675
:2013F900A502149512021CAF8290E740EFF090E68AE4F090E68B04F002149590E6BAE0F514
:2014190082120220E582707490E6A0E0FF74014FF0806990E6BCE0FF751B14751C00751D48
:20143900408F82120214E582700B90E6A0E0FF74014FF0804790E740E514F090E68AE4F054
:2014590090E68B04F0803590E6BCE0FF90E6BAE0F51B8F82120218E582702190E6A0E0FF6E
:2014790074014FF0801690E6B9E0F582120224E582700990E6A0E0FF74014FF090E6A0E0CC
:20149900FF74804FF022AF828F0653067FEE24F750030214F5EE240A83F582EE240D83F52D
:2014B90083E473CED2E5F5E9F5EDF5F114141414141414141490E6A022EF30E7067EA27F77
:2014D900E680047EA17FE68E828F832290E6A32290E6A42290E6A52290E6A622900000221D
:2014F90090E6B8E0FFBF8002801FBF81028005BF8273803490E740E4F090E741F090E68A84
:20151900F090E68B7402F08060E51625E0FFE515420790E740EFF090E741E4F090E68AF027
:2015390090E68B7402F0804190E6BCE0F58212149FAE82AF838E048F05EE4F7003F582224B
:201559008C828D83E0FC30E0047F0180027F0090E740EFF090E741E4F090E68AF090E68BD0
:201579007402F08004758200227582012290E6B8E0FF6005BF0258801B90E6BAE0FFBF0140
:2015990005751600805290E6BAE0FFBF060280487582002290E6BAE0703190E6BCE0F582DF
:2015B90012149FAE82AF83E0FD5305FE8E828F83EDF090E6BCE0FF30E70343071053071FBB
:2015D90090E683EFF074204FF0800D7582002290E6B9E0F5820202247582012290E6B8E0CB
:2015F900FF6005BF026E802690E6BAE0FFBF020302167690E6BAE0FFBF0105751601805DFB
:2016190090E6BAE0FFBF060280537582002290E6BAE0703C90E6BCE0F58212149FAE82AF06
:2016390083EE4F7003F582228E828F83E0FD4305018E828F83EDF090E6BCE0FF30E7034310
:20165900071053071F90E683EFF074204FF0800D7582002290E6B9E0F582020224758201EA
:2016790022AF82D20310AF02C203EF600E75171C75183E751944751A3E800C75174475184B
:201699003E75191C751A3EA20392AF2290E6BBE0FFBF01028019BF02028029BF0302803326
:2016B900BF0603021760BF07030217750217847E007F3E8F0690E6B3EEF07E007F3E90E654
:2016D900B4EEF022AF1890E6B3EFF0AE1790E6B4EEF0227D6C7E3E7F8090E6BAE0F51B7B40
:2016F900008B020BEAB51B0280428D008E018F028D828E838FF01218A328F8E439F98805DF
:2017190089068A0774012DF9E43EFA8F0489828A838CF01218A3F9B9030280067D007E00AD
:201739007F00ED4E6006C3E51B9B50B5ED4E600D8E0790E6B3EFF090E6B4EDF02290E6A089
:20175900E0FF74014FF0227E127F3E8F0690E6B3EEF07E127F3E90E6B4EEF022AF1A90E61C
:15177900B3EFF0AE1990E6B4EEF02290E6A0E0FF74014FF0220D
:200066007901E94400601B7A0190191C784775923CE493F2A308B800020592D9F4DAF275A3
:0200860092FFE7
:1B178E0020F71130F6138883A88220F509F6A8837583002280FEF280F5F0225A
:203F0000020816000218CE000218C3000218C70002083D0002088C000218C00002183F00CB
:203F2000021841000218420002184300021846000218CD000218CF000217A9000217C8009A
:203F40000208DB0002183F000218BF000218C1000218C2000218C4000218C5000218C600F6
:203F60000218A20002183F0002183F0002183F0002184000021844000218470002184900FE
:203F8000021845000218480002184A000218A100021837000218390002183B0002183D00F1
:183FA0000218380002183A0002183C0002183E000217C7000218CC00EF
:0117A900320D
:1D17AA00E582851BF0A4C582C0F0851CF0A4D0F025F0C583851BF0A42583F58322C8
:0117C70032EF
:0117C80032EE
:2017C900AAF0FBE582851BF0A4FCADF0E583851BF0A42DFDE435F0FEE582851CF0A42DFDA4
:2017E900E5F03EFEE433FFEA851BF0A42EFEE5F03FFFE583851CF0A42EFEE5F03FFFE58219
:20180900851DF0A42EFEE5F03FFFEB851BF0A42FFFEA851CF0A42FFFE583851DF0A42FFFE4
:0E182900E582851EF0A42F8EF08D838C822226
:01183700327E
:01183800327D
:20008E007800E84400600A790075923CE4F309D8FC7847E84400600C7901903C00E4F0A3C0
:0400AE00D8FCD9FAA7
:01183900327C
:01183A00327B
:01183B00327A
:01183C003279
:01183D003278
:01183E003277
:01183F003276
:011840003275
:011841003274
:011842003273
:011843003272
:011844003271
:011845003270
:01184600326F
:01184700326E
:01184800326D
:01184900326C
:01184A00326B
:20184B00AE82AF8390E600E05418C423541FFD70057CB1FD801C90E600E05418C423541FAB
:20186B00FBBB01067A617B0180047AC27B028A048B058C1B8D1C151B74FFB51B02151CE513
:16188B001B451C70F1EE24FFFAEF34FFFB8A068B07EA4B70DD227C
:0118A1003214
:0118A2003213
:0D00590075816E1218C8E582600302005622
:1C18A30020F71430F6148883A88220F507E6A88375830022E280F7E49322E02254
:0118BF0032F6
:0118C00032F5
:0118C10032F4
:0118C20032F3
:0118C30032F2
:0118C40032F1
:0118C50032F0
:0118C60032EF
:0118C70032EE
:0418C8007582002203
:0118CC0032E9
:0118CD0032E8
:0118CE0032E7
:0118CF0032E6
:00000001FF
