:2000D900AF8290E600E05418C423541FFEBE020E8F06000000000000000000DEF52290E6EE
:1700F90000E05418C423541FFEBE01088F06000000DEFB22DFFE22F6
:20011000C0138581130581AD82AE83AFF0A813087600AC130C7B007A40C007C006C005E4EF
:20013000C0E0C0E0C0E0C0E0C0E0C004C003C00204C0E0E4C0E0758257121754AC82E581BF
:2001500024F6F581D005D006D007EC7004F582802BE51324FDF886037C00C005C006C00793
:20017000C003C004758257121900AF82E58124FBF581EF7004F58280037582011581D01375
:2001900022C013858113C082C083C0F00581E5132404F87600E51324FDF886037C00E513EA
:2001B0002404FA7E007F40A81308E6C0E008E6C0E008E6C0E0C003C004C002C006C0077421
:2001D00001C0E0E4C0E0758257121754AF82E58124F6F581EF7004F582800375820185130B
:0401F00081D0132285
:2001F4007F1453B1FB758229C0071200D9D00743B104E5B130E00475820022E5B120E00956
:20021400EF14FEFF70F5F58222903C477401F075820122AF828F061FEE601BC29990E67BA0
:20023400E0F599E5B120E009903C47E4F0758200222099E180FBE5B130E10C758264120068
:12025400D9903C477402F075820122903C47E0F58222A0
:011DE70000FB
:04000000020059326F
:01000B0032C2
:030013000209DC03
:01001B0032B2
:0100230032AA
:01002B0032A2
:01003300329A
:01003B003292
:03004300023F0079
:01004B003282
:03005300023F0069
:0600B200C200C201C202FF
:0300D600020056CF
:030056000209DFBD
:2002660075820022C013858113758201D01322C013858113758201D013227582012275827C
:200286000122AF82BF1003020329BF1103020354BF2003020382BF2103020397BF2203020A
:2002A6000408BF230302041BBF2403020450BF300302048BBF31030204B6BF32030204EAD4
:2002C600BF3303020529BF340302054FBF4003020572BF41030205B2BF42030205E1BF4382
:2002E6000302061DBF4403020662BF4F03020677BF5003020689BF51030206DDBF60030211
:200306000737BF61030207B4BF62030207E9BF63030207FABF640302080BBF6F0302081CE9
:2003260002081F90E6BCE0700C90E6BAE0FF24FF928702081F90E6BCE0FFBF010280030234
:20034600081F90E6BAE0FF24FF928602081F7F0090E6BEE0FEC3EF9E5016EF2440FDE4344E
:20036600E7FEEF901DD793FC8D828E83F00F80E090E6BEE0FF90E68BF002081F1201F4E5F8
:2003860082600302081F90E6A0E043E001F002081F12025FAF82BF0102800890E6A0E043EF
:2003A600E001F090E6BFE0FE7F0090E6BEE0FD7C004207EC4206EF4E700302081F90E68BF0
:2003C600E4F000000090E6A0E020E1F9759AE7759B4090E68BE0F582C007C006120227E508
:2003E60082D006D007700B90E6A0E043E001F002081F90E68BE0FD7C00EFC39DFFEE9CFEEA
:2004060080B412025FAF8290E740EFF090E68B7401F002081F759A40759B00759DE7759E6E
:200426004090E6BCE0F59B7F0090E6BEE0FEC3EF9E500B90E67BE090E67CF00F80EB90E6F5
:20044600BEE0FF90E68BF002081F90E68BE4F000000090E6A0E020E1F9759AE7759B40755F
:200466009D40759E0090E6BCE0F59E7F0090E6BEE0FEC3EF9E400302081F90E67BE090E64D
:200486007CF00F80E890E6BEE0FFC00790E74075F000120110AF821581EF700890E6A0E036
:2004A60043E001F090E6BEE0FF90E68BF002081F90E68BE4F000000090E6A0E020E1F990A0
:2004C600E6BEE0FFC00790E74075F000120191AF821581EF600302081F90E6A0E043E001B0
:2004E600F002081F90E68BE4F000000090E6A0E020E1F990E68BE0FFBF3002800B90E6A0A6
:20050600E043E001F002081F90E74075F000121001E582600302081F90E6A0E043E001F07C
:2005260002081F90E6BAE0FF90E6BCE0FEC0078E8212124BAF821581EF600302081F90E66F
:20054600A0E043E001F002081F90E6BAE0FFBFA51512126EE582600302081F90E6A0E04392
:20056600E001F002081F12127C02081F90E6BDE0FF90E6BBE0FD7E0090E6BAE07B00420641
:20058600EB420590E6BCE0FCC007C006C0058C82120AF9AF82158115811581EF6003020851
:2005A6001F90E6A0E043E001F002081F90E6BBE0FF90E6BAE0FE90E6BCE0FDC007C0068D9C
:2005C60082120C79AF8215811581EF600302081F90E6A0E043E001F002081F90E6BAE0FFE2
:2005E60090E6BCE0FE90E6BCE0FDBD020050067C027D0080047C007D00EC2EF582C00712DF
:200606000B96AF821581EF600302081F90E6A0E043E001F002081F90E6BAE0701CC2AA9026
:20062600E6BCE0F582120FC075820A1200D9C28BD2AAD287C28602081F90E6BAE0FFBF018C
:2006460010C287C28690E6BCE0F582120FD902081F90E6A0E043E001F002081F120EFFE510
:2006660082600302081F90E6A0E043E001F002081FA281E433FF90E740F090E68B7401F0ED
:2006860002081F90E6BEE0FF7E0090E6BDE0FC7D0090E6BCE07A004205EA42047440C0E0B7
:2006A60074E7C0E0E4C0E0C007C006C005C004758251121BBBAF82E58124F9F581EF600CEA
:2006C60090E6BEE0FF90E68BF002081F90E6A0E043E001F002081F90E68BE4F0000000904F
:2006E600E6A0E020E1F990E6BEE0FF7E0090E6BDE0FC7D0090E6BCE07A004205EA42047400
:2007060040C0E074E7C0E0E4C0E0C007C006C005C004758251121ACBAF82E58124F9F581F5
:20072600EF600302081F90E6A0E043E001F002081F90E6BEE0600F90E68BE4F0000000901D
:20074600E6A0E020E1F9759AE7759B4090E6BCE0702090E601E054BFFF90E6BAE060067DEF
:20076600407E0080047D007E0090E601ED4FF002081F90E6BEE0FF90E6BBE0FD7E0090E655
:20078600BAE07B004206EB420590E6BCE0FCC007C006C0058C82121289AF82158115811537
:2007A60081EF707590E6A0E043E001F0806B90E6BCE0FF7440C0E074E7C0E0E4C0E08F82F4
:2007C600121294AF82158115811581EF600B90E6BEE0FF90E68BF0804090E6A0E043E00130
:2007E600F0803612129FE582702F90E6A0E043E001F080251212A3E582701E90E6A0E043E0
:20080600E001F080141212A7E582700D90E6A0E043E001F080031212AF75820122A285B36A
:200826009208E43390E7C0F0A200E43390E7C1F01212ABAF8290E7C2EFF090E68F7403F075
:20084600C2002290E60174C0F090E600E054E74410F090E60B7403F000000090E67A7401F1
:20086600F075AF0790E67004F075800875B2DD75900075B30075A00075B40075B00075B5C2
:200886000090E6727418F075B10475B664758200120FC0758201120FC0120FF2120A5843BA
:2008A600B10475982090E61174B0F000000090E61274A2F000000090E61474E2F000000057
:2008C60090E6137420F000000090E6157420F000000022C0E0C082C083D2025391EF90E692
:2008E6005D7401F0D083D082D0E032C021C0E0C0F0C082C083C007C006C005C004C003C05A
:2009060002C001C000C0D075D0007582001215CE5391EF90E65D7410F0D0D0D000D001D062
:2009260002D003D004D005D006D007D083D082D0F0D0E0D02132C021C0E0C0F0C082C08398
:20094600C007C006C005C004C003C002C001C000C0D075D0007582011215CE5391EF90E66A
:200966005D7420F0D0D0D000D001D002D003D004D005D006D007D083D082D0F0D0E0D0214E
:2009860032C021C0E0C0F0C082C083C007C006C005C004C003C002C001C000C0D075D00078
:2009A6005391EF90E659E030E10912082390E6597402F090E65B7401F0D0D0D000D001D0DC
:2009C60002D003D004D005D006D007D083D082D0F0D0E0D02132D20132120849121288D2C8
:2009E600E890E668E043E008F090E65CE043E001F090E65CE043E010F090E65CE043E020A0
:200A0600F090E6587402F090E65A14F0D28AC28BD2AAD2AF90E680E020E11690E680E0432C
:200A2600E00AF09005DC121C7190E680E053E0F7F0D2871212B010020280031212B110012C
:120A46000280F0120EFF12127C1212AFD286D20080E10F
:0C00B80075099B750A1D750BA1750C1DC8
:200A5800C01385811305810581120EFFA9130989057E007F40C001C005C006C0077402C08E
:200A7800E0E4C0E07408C0E0E4C0E0758251121BBBAF82E58124F9F581D001EF7002805BF3
:200A98008707BF1B08098707BFCA028002804CAE09AF0A7D00C006C007C0057406C0E0E421
:200AB800C0E0740AC0E0E4C0E0758251121BBBE58124F9F581AE0BAF0C7D00C006C007C075
:200AD800057406C0E0E4C0E07410C0E0E4C0E0758251121BBBE58124F9F581851381D0138E
:200AF80022C013858113058105810581E582FF24FC5006758200020B90BF02005014E513B1
:200B180024FCF8C3E694C208E6940150057582008066E51324FBF8E6600EA913098F06EE46
:200B38002EFE74584EF7800AA91309EF2FFF74404FF7AF130FEF04F9E51324FCF808860699
:200B5800740F5EF774022FF9E51324FCF88606A7067E007D40C007C006C0057403C0E0E436
:200B7800C0E0C0E0C0E0C0E0C0E0C0E0758260121754E58124F6F581851381D01322C013E2
:200B9800858113058105810581AF828F057E00ED24FEFDEE34FFFEC374019D74808EF0637A
:200BB800F08095F0400AE51324FDF8B60A005006758200020C737404250BFDE4350CFEEF88
:200BD80024FEFC2DF582E43EF583E0FEE51324FDF8EE26F674042509FDE4350AFEEC2DF5D6
:200BF80082E43EF583E0FE7D00E51324FDF886037C00C007C003C0048E828D83121731ADDB
:200C180082AE8315811581D007EEC423CDC423541F6DCD541FCD6DCDFEA91309EF2FFF7402
:200C3800404FF7E904F88E07740F5FF6740229F8A60589077E007D40C007C006C0057403EE
:200C5800C0E0E4C0E0C0E0C0E0C0E0C0E0C0E0758260121754E58124F6F581851381D01372
:200C780022C013858113C082E5812409F581A81308E624FE4045A81308E670057D70FE802A
:200C9800047D187E00E51324FDF886037C00C3EB9DEC64808EF063F08095F0401EA81308FD
:200CB800E670057DF0FE80047D687E00C3ED9BEE64808CF063F08095F05006758200020E21
:200CD800F9A81308E625E0FE2509F582E4350AF583E0FCA3E0FDA8130808A60408A605088B
:200CF8007600087600E51324FDF886037C007D007F00C006C003C004C005C007A813080832
:200D180086820886830886F008E6121CFFAB82AC83ADF0FFE58124FCF581D00674802BE43C
:200D38003CFCE43DFDE43FEE250BFEE4350CFA8C038D048E828A83E0FEA3E0FAEEC39BFB08
:200D5800EA9CFCA81308E675F002A42400FE743C35F0FF8E828F83E0FAA3E0FDEAC39BFA91
:200D7800ED9CFDE5132409F8A60208A605E51324FCF8C3748086F063F08095F0400675828B
:200D980000020EF9E5132409F808E6FB30E709E51324FCF8C3E496F6E5132409F8E6084678
:200DB8007003020EF6E51324FCF8C3748086F063F08095F0502FE51324FCF88602E6339548
:200DD800E0FBE5132409F8C3E69A08E664808BF063F08095F0503BE5132409F8E51324FC5B
:200DF800F9E6F7802DE51324FCF88602E63395E0FBE5132409F8C3EA96EB64800886F06327
:200E1800F08095F0500CE5132409F8E51324FCF9E6F78E828F83A8130808E0F6A3E008F61A
:200E3800E51324FCF88604E63395E0FD8C028D03A8130808E6C39AFA08E69BFB8E828F83A9
:200E5800EAF0EBA3F0C006C007E5132409F88606088607EEC39CFCEF9DFDE5132409F8A6C2
:200E78000408A605C3EA94C2EB9401D007D0065007D2867582008069E5132406F9A8130806
:200E9800E626FD74404DF7E904F88E828F83E0A3E0FC740F5CF6740229F88E828F83E0F66F
:200EB80089057C007B40C007C006C005C004C0037403C0E0E4C0E0C0E0C0E0C0E0C0E0C0A1
:200ED800E0758260121754AD82E58124F6F581D006D007ED6003020DB075820080037582F4
:200EF80001851381D01322C013E581F513240AF581A813087606AF130F7E007D40E4C0E007
:200F1800C0E0C0E0C0E0C0E0C007C006C00504C0E0E4C0E0758200121754AF82E58124F69A
:200F3800F581EF7005F582020FBAE5132402FFFC7D007E40C007C004C005C0067409C0E0F6
:200F5800E4C0E0758260121900AE82E58124FBF581D007EE7004F5828048EF04F987065304
:200F7800060F8E057E0074022FF987047B00EC4206EB4205903C00EEF0EDA3F074072FF95C
:200F9800870653060F8E057E0074082FF987077C00EF4206EC4205903C02EEF0EDA3F0757A
:200FB8008201851381D01322AF82C283000000EF7004C2828005BF0102C284000000D28379
:1A0FD80022AF82C283000000EF7004D2828005BF0102D284000000D283229C
:0C1D9B00EB135A28867BC9151C1310FDA1
:200FF20053B1DF75C000901DA775F080021001C013858113C082C083C0F0E581240DF5814D
:20101200E5B130E506758200021245308106758200021245E5132404F8E4F608F608F608C0
:20103200F67E00E513240CF87630C006E513240CF886061EA81308EE26FDE40836FE088652
:20105200078D828E838FF0121CE3FAE5132404F8E5132408F9080808E6C313090909F7189A
:20107200E61319F718E61319F718E61319F7EAD00630E20A7B007C007D807F0080087B00C1
:201092007C007D007F00E5132408F8E6420308E6420408E6420508E64207EA2AFAE51324B5
:2010B2000DF8EFC313080808F6ED1318F6EC1318F6EB1318F6EA30E20A7C007D007B807FA6
:2010D2000080087C007D007B007F00C0068B06E513240DF8E6420408E6420508E64206086C
:2010F200E64207EA2AFAE5132408F8EFC313080808F6EE1318F6ED1318F6EC1318F6EAD0CE
:201112000630E20A7D007B007C807F0080087D007B007C007F00E5132408F8E5132404F978
:20113200ED46F7EB084609F7EC084609F7EF084609F7E513240CF886057F001DBDFF011FA0
:20115200ED540760030211D4EE04FFEE2434FCE4343CFDE5132404F886028C828D83EAF0CF
:201172008F050FE5132408F8ED2434F6E4343C08F6E5132404F80886037D008B02E5132442
:2011920008F88682088683EAF0EF04FEE5132408F8EF2434F6E4343C08F6E5132404F87B1B
:2011B20000080886047F008C02E5132408F88682088683EAF0E5132404F8E4F608F608F679
:2011D20008F6E513240CF816E513240CF8E6600302103C759A3C759B3490E600E0FF74E7D3
:2011F2005FF07E00C2C190E67BE0F5C130C1FD0EBE120040EF75820AC0071200D9D00790F1
:20121200E600EFF07F00EF2404FDE4343CFEA81308EF26FAE40836FB0886048A828B838CEB
:20123200F0121CE3FA8D828E83F00FBF300040D6758201851381D01322C013858113E58214
:201252002404F582E4343CF583E51324FDF8E6F0903C0475F000121001D0132230810475A3
:1612720082002243B1207582012253B1DF901DA775F08002100165
:201DA70004040404040404040404040404040404040404040404040404040404040404049C
:101DC70004040404040404040404040404040404CC
:203E000012010002FFFFFF40091201480100010200010A060002FFFFFF4001000902270065
:203E200001010080FA0904000003FFFFFF00070581030002090705020200020007058602B8
:033E40000002007D
:203E44000902270001010080FA0904000004FFFFFF0007058103400014070502024000006E
:073E64000705860240000083
:203E6C00040309042A0377006F006A00630069006500630068006B003800400067006D00F2
:203E8C00610069006C002E0063006F006D0014034E0056004D0065006D00500072006F0068
:043EAC0067000000AB
:2012880022C013858113758200D01322C013858113758200D01322758200227582002275AD
:0912A8008200227582002222223C
:101DD70064756D6D790000000000000000000000D0
:06008800E478FFF6D8FD4C
:1200C400750D00750E00750F4475103E75111C75123E33
:2012B100C013858113058190E6B9E0FF24F450030213CCEF240A83F582EF241083F583E438
:2012D10073EAFFCC14CCCC29CC39506AAA121213131313131313131313121446E58260037F
:2012F1000213E190E6A0E043E001F00213E11214DAE58260030213E190E6A0E043E001F01D
:201311000213E1121549E58260030213E190E6A0E043E001F00213E1120266E58260030250
:2013310013E11215F90213E1120280AF8290E740EFF090E68AE4F090E68B04F00213E190E8
:20135100E6BAE0F582120284E58260030213E190E6A0E043E001F08077AF130F7E007D4020
:2013710090E6BCE0FCC007C006C0058C8212026AAF82158115811581EF700A90E6A0E043DB
:20139100E001F0804B90E740A81308E6F090E68AE4F090E68B04F0803790E6BAE0FF90E64B
:2013B100BCE0FEC0078E82120275AF821581EF701F90E6A0E043E001F0801590E6B9E0F53A
:2013D10082120288E582700890E6A0E043E001F090E6A0E043E080F01581D01322AF82742C
:2013F1007F5FFE24F75003021442EE240A83F582EE240D83F583E4731B1F324236423A4211
:201411003E14141414141414141490E6A022EF30E7067EA27FE680047EA17FE68E828F83D6
:201431002290E6A32290E6A42290E6A52290E6A6229000002290E6B8E0FFBF80028022BF26
:2014510081028008BF820280370214D290E740E4F090E741F090E68AF090E68B7402F08084
:2014710064E50E25E0FFE50D420790E740EFF090E741E4F090E68AF090E68B7402F0804587
:2014910090E6BCE0F5821213EEAE82AF838E048F05EE4F7003F582228C828D83E0FC30E0C4
:2014B100067E017F0080047E007F0090E740EEF090E741E4F090E68AF090E68B7402F0809E
:2014D10004758200227582012290E6B8E0FF6005BF0258801B90E6BAE0FFBF0105750E0047
:2014F100805290E6BAE0FFBF060280487582002290E6BAE0703190E6BCE0F5821213EEAE57
:2015110082AF83E0FD5305FE8E828F83EDF090E6BCE0FF30E70343071053071F90E683EFEE
:20153100F074204FF0800D7582002290E6B9E0F5820202887582012290E6B8E0FF6005BFD4
:20155100026E802690E6BAE0FFBF02030215CA90E6BAE0FFBF0105750E01805D90E6BAE06B
:20157100FFBF060280537582002290E6BAE0703C90E6BCE0F5821213EEAE82AF83EE4F7041
:2015910003F582228E828F83E0FD4305018E828F83EDF090E6BCE0FF30E703430710530778
:2015B1001F90E683EFF074204FF0800D7582002290E6B9E0F58202028875820122AF82D37A
:2015D10010AF01C3C0D0EF600E750F1C75103E75114475123E800C750F4475103E75111CDF
:2015F10075123ED0D092AF22C013E581F5132404F58190E6BBE0FFBF01028019BF02028085
:2016110026BF03028030BF0603021703BF07030217140217227E007F3E90E6B3EFF090E651
:20163100B47400F002172A90E6B3E510F090E6B4E50FF002172AA81308766C08763E087600
:201651008090E6BAE0FCE5132404F87600E5132404F8E6B504028071C004E5132404F806D3
:20167100A813088602088603088604A8130886820886830886F0121CE32AFAE43BFBA81387
:2016910008A60208A60308A604A81308740126FDE40836FE0886078D828E838FF0121CE366
:2016B100FDBD0304D004800CD004A81308E4F608F6087600A81308E60846600DE513240487
:2016D100F8C3EC96400302165EA81308E608466017A81308860508860690E6B3EEF0A813F1
:2016F1000890E6B4E6F0803190E6A0E043E001F080277E127F3E90E6B3EFF090E6B474126A
:1F171100F0801690E6B3E512F090E6B4E511F0800890E6A0E043E001F0851381D0132263
:200066007901E94400601B7A01901DE7784775923CE493F2A308B800020592D9F4DAF275D4
:0200860092FFE7
:203F00000208D900021D9900021D7300021D77000208F10002093C00021D7000021C65008A
:203F2000021C6700021C6800021C6900021C6C00021D7D00021D9A0002173000021C5C004D
:203F400002098700021C6500021D6F00021D7100021D7200021D7400021D7500021D7600E1
:203F6000021CE200021C6500021C6500021C6500021C6600021C6A00021C6D00021C6F0094
:203F8000021C6B00021C6E00021C7000021CE100021C5D00021C5F00021C6100021C630087
:183FA000021C5E00021C6000021C6200021C640002175300021D7C0006
:011730003286
:2017310074FE2581F8E68582F0A4C0E08582F018E6A4F582D0E025F0C58386F0A42583F593
:021751008322F1
:011753003263
:20175400C013858113C082058105810581E51324FCF8E51324F7F9E726FD09E70836FEE57E
:20177400132403F8A60508A6067C02903C46E4F0903C46E060067582000218FA90E678E02F
:2017940043E080F090E678E030E20C90000AC004121C71D00480D9A81308E626FB90E679D3
:2017B400F090E678E020E006903C46E060F3903C46E060067582000218FA90E678E020E2D9
:2017D400AF90E678E020E13990E678E043E040F090E678E030E606903C46E060F3903C46DC
:2017F400E060067582000218FAEC14FBFC7005F5820218FA90000AC004121C71D0040217A3
:20181400847A007B00E5132403F8C3EA96EB089640030218D7E51324FCF8C3EA96EB089648
:201834005023C004E51324F9F8EA26FCEB0836FE0886078C828E838FF0A8130808121CE30E
:20185400F6D004802AE51324FCF8EAC396FEEB0896FFE51324F4F8EE26FEEF0836FF088653
:20187400058E828F838DF0A8130808121CE3F6A813080890E679E6F00ABA00010B90E67890
:20189400E020E006903C46E060F3903C46E06005758200805190E678E030E20302178490DA
:2018B400E678E030E10302181990E678E043E040F090E678E030E606903C46E060F3758248
:2018D40000802390E678E043E040F090E678E030E606903C46E060F3903C46E060057582B3
:2018F400008003758201851381D01322C013858113C08205810581903C46E4F0E51324FC03
:20191400F8E4B6010508B6000104FE903C46E06006758200021AC57C007D0090E678E04320
:20193400E080F090E678E030E20C90000AC006121C71D00680D5A81308E626FB90E6797400
:20195400014BF090E678E020E006903C46E060F3903C46E06006758200021AC590E678E020
:2019740020E2A890E678E020E11B90E678E043E040F090E678E030E606903C46E060F375FA
:201994008200021AC5EE600890E678E043E020F090E679E0A8130808E4F608F6C004C0057E
:2019B400A8130808740126FCE40836FDE51324FCF8C3EC96ED0896D005D0044003021A6347
:2019D40090E678E020E006903C46E060F3903C46E06006758200021AC590E678E030E203C7
:2019F40002191FC006A8130808740226FEE40836FFE51324FCF8E6B5060708E6B507028069
:201A140004D006800AD00690E678E043E020F0C006A81308088606088607A813080806B63E
:201A340000020806A81308088604088605E51324F9F8EE26FEEF0836FB08860790E679E0EF
:201A5400FA8E828B838FF0121D7ED0060219B090E678E020E006903C46E060F3903C46E082
:201A74006005758200804A90E678E030E20302191F90E678E043E040F0E51324F9F8EC26CF
:201A9400FCED0836FD08860790E679E0FE8C828D838FF0121D7E90E678E030E606903C4666
:201AB400E060F3903C46E060057582008003758201851381D01322C013858113C082E58164
:201AD4002405F581E5132402F9FEE5132405F8E4F608F6E51324FCF88602088603E5132408
:201AF40005F8C001E51324FAF9C3E69708E60997D0014003021BB27C0090E678E030E406F0
:201B14007C018B07A707EC04FDEC29F88A07A6078D07C002C003ED04FBEF29F8C000E513EF
:201B340024F7F8C001E5132405F9E726FA09E70836FD088607D001E5132405F806B6000234
:201B54000806D0008A828D838FF0121CE3F68E047D007F407A00C006C003C002C001E4C0F9
:201B7400E0C0E0C0E0C0E0C0E0C004C005C007C003C002A813088682121754AF82E5812419
:201B9400F6F581D001D002D003D006D003D002EF7004F582800B0ABA00010B021AF175829B
:201BB40001851381D01322C01385811305810581AF827E0090E678E030E40FA913097E0116
:201BD400E51324FCF8088605A705AD130DEE04FCEE2DF9E51324FCF88606A7067E007B4051
:201BF4007A00C007E4C0E0C0E0C0E0C0E0C0E0C005C006C003C004C0028F82121754AE82FA
:201C1400E58124F6F581D007EE7004F5828033E51324F7F8E6C0E008E6C0E008E6C0E0E5C5
:201C34001324FAF8E6C0E008E6C0E08F82121900AF82E58124FBF581EF7004F58280037519
:081C54008201851381D01322E7
:011C5C003255
:011C5D003254
:011C5E003253
:20008E007800E84400600A790075923CE4F309D8FC7847E84400600C7901903C00E4F0A3C0
:0400AE00D8FCD9FAA7
:011C5F003252
:011C60003251
:011C61003250
:011C6200324F
:011C6300324E
:011C6400324D
:011C6500324C
:011C6600324B
:011C6700324A
:011C68003249
:011C69003248
:011C6A003247
:011C6B003246
:011C6C003245
:011C6D003244
:011C6E003243
:011C6F003242
:011C70003241
:201C7100C01385811305810581AE82AF8390E600E05418C423541F70057CB1FD801C90E62C
:201C910000E05418C423541FFBBB01067A617B0180047AC27B028A048B05A81308A60408A9
:201CB100A605A81308E624FFFA08E634FFFBA81308A60208A603EA4B70E8EE24FFFAEF34AF
:101CD100FFFB8A068B07EA4B70D0851381D0132254
:011CE10032D0
:011CE20032CF
:0D005900758121121D78E5826003020056BA
:1C1CE30020F71430F6148883A88220F507E6A88375830022E280F7E49322E02210
:201CFF00AAF0FB74FB2581F8E58286F0A9F008A4FCADF0E58389F0A42DFDE435F0FEE5824B
:201D1F0086F0A42DFDE5F03EFEE433FFEA89F0A42EFEE5F03FFFE58386F0A42EFEE5F03F31
:201D3F00FFE5820886F0A42EFEE5F03FFFEB89F0A42FFFE58386F0A42FFFEA1886F0A42F8C
:101D5F00FFE582080886F0A42F8EF08D838C8222F7
:011D6F003241
:011D70003240
:011D7100323F
:011D7200323E
:011D7300323D
:011D7400323C
:011D7500323B
:011D7600323A
:011D77003239
:041D7800758200224E
:011D7C003234
:011D7D003233
:1B1D7E0020F71130F6138883A88220F509F6A8837583002280FEF280F5F02264
:011D99003217
:011D9A003216
:00000001FF
