:2000DB00AF8290E600E05418C423541FFEBE020E8F06000000000000000000DEF52290E6EC
:1700FB0000E05418C423541FFEBE01088F06000000DEFB22DFFE22F4
:20011200C0158581150581AD82AE83AFF0A815087600AC150C7B007A40C007C006C005E4E5
:20013200C0E0C0E0C0E0C0E0C0E0C004C003C00204C0E0E4C0E0758257121AFFAC82E5810F
:2001520024F6F581D005D006D007EC7004F582802BE51524FDF886037C00C005C006C0078F
:20017200C003C004758257121CABAF82E58124FBF581EF7004F58280037582011581D015C3
:2001920022C015858115C082C083C0F00581E5152404F87600E51524FDF886037C00E515DE
:2001B2002404FA7E007F40A81508E6C0E008E6C0E008E6C0E0C003C004C002C006C007741D
:2001D20001C0E0E4C0E0758257121AFFAF82E58124F6F581EF7004F5828003758201851559
:0401F20081D0152281
:2001F6007F1453B1FB758229C0071200DBD00743B104E5B130E00475820022E5B120E00952
:20021600EF14FEFF70F5F58222903C617401F075820122AF828F061FEE601BC29990E67B84
:20023600E0F599E5B120E009903C61E4F0758200222099E180FBE5B130E10C75826412004C
:12025600DB903C617402F075820122903C61E0F5822268
:0122120000CB
:04000000020059326F
:01000B0032C2
:030013000209DE01
:01001B0032B2
:0100230032AA
:01002B0032A2
:01003300329A
:01003B003292
:03004300023F0079
:01004B003282
:03005300023F0069
:0600B200C200C201C202FF
:0300D800020056CD
:030056000209E1BB
:2002680075820022C015858115758201D01522C015858115758201D015227582012275826E
:200288000122AF82BF100302032BBF1103020356BF2003020384BF2103020399BF22030200
:2002A800040ABF230302041DBF2403020452BF300302048DBF31030204B8BF32030204ECC6
:2002C800BF330302052BBF3403020551BF4003020574BF41030205B4BF42030205E3BF4376
:2002E8000302061FBF4403020664BF4F03020679BF500302068BBF51030206DFBF60030205
:200308000739BF61030207B6BF62030207EBBF63030207FCBF640302080DBF6F0302081EDB
:2003280002082190E6BCE0700C90E6BAE0FF24FF928702082190E6BCE0FFBF01028003022E
:20034800082190E6BAE0FF24FF92860208217F0090E6BEE0FEC3EF9E5016EF2440FDE43448
:20036800E7FEEF90218293FC8D828E83F00F80E090E6BEE0FF90E68BF00208211201F6E543
:2003880082600302082190E6A0E043E001F0020821120261AF82BF0102800890E6A0E043E7
:2003A800E001F090E6BFE0FE7F0090E6BEE0FD7C004207EC4206EF4E700302082190E68BEC
:2003C800E4F000000090E6A0E020E1F9759AE7759B4090E68BE0F582C007C006120229E504
:2003E80082D006D007700B90E6A0E043E001F002082190E68BE0FD7C00EFC39DFFEE9CFEE6
:2004080080B4120261AF8290E740EFF090E68B7401F0020821759A40759B00759DE7759E68
:200428004090E6BCE0F59B7F0090E6BEE0FEC3EF9E500B90E67BE090E67CF00F80EB90E6F3
:20044800BEE0FF90E68BF002082190E68BE4F000000090E6A0E020E1F9759AE7759B40755B
:200468009D40759E0090E6BCE0F59E7F0090E6BEE0FEC3EF9E400302082190E67BE090E649
:200488007CF00F80E890E6BEE0FFC00790E74075F000120112AF821581EF700890E6A0E032
:2004A80043E001F090E6BEE0FF90E68BF002082190E68BE4F000000090E6A0E020E1F9909C
:2004C800E6BEE0FFC00790E74075F000120193AF821581EF600302082190E6A0E043E001AA
:2004E800F002082190E68BE4F000000090E6A0E020E1F990E68BE0FFBF3002800B90E6A0A2
:20050800E043E001F002082190E74075F000121003E582600302082190E6A0E043E001F074
:2005280002082190E6BAE0FF90E6BCE0FEC0078E8212124DAF821581EF600302082190E667
:20054800A0E043E001F002082190E6BAE0FFBFA515121270E582600302082190E6A0E0438A
:20056800E001F002082112127E02082190E6BDE0FF90E6BBE0FD7E0090E6BAE07B00420639
:20058800EB420590E6BCE0FCC007C006C0058C82120AFBAF82158115811581EF600302084D
:2005A8002190E6A0E043E001F002082190E6BBE0FF90E6BAE0FE90E6BCE0FDC007C0068D96
:2005C80082120C7BAF8215811581EF600302082190E6A0E043E001F002082190E6BAE0FFDA
:2005E80090E6BCE0FE90E6BCE0FDBD020050067C027D0080047C007D00EC2EF582C00712DD
:200608000B98AF821581EF600302082190E6A0E043E001F002082190E6BAE0701CC2AA901E
:20062800E6BCE0F582120FC275820A1200DBC28BD2AAD287C28602082190E6BAE0FFBF0184
:2006480010C287C28690E6BCE0F582120FDB02082190E6A0E043E001F0020821120F01E505
:2006680082600302082190E6A0E043E001F0020821A281E433FF90E740F090E68B7401F0E7
:2006880002082190E6BEE0FF7E0090E6BDE0FC7D0090E6BCE07A004205EA42047440C0E0B3
:2006A80074E7C0E0E4C0E0C007C006C005C004758251121F66AF82E58124F9F581EF600C39
:2006C80090E6BEE0FF90E68BF002082190E6A0E043E001F002082190E68BE4F00000009049
:2006E800E6A0E020E1F990E6BEE0FF7E0090E6BDE0FC7D0090E6BCE07A004205EA420474FE
:2007080040C0E074E7C0E0E4C0E0C007C006C005C004758251121E76AF82E58124F9F58144
:20072800EF600302082190E6A0E043E001F002082190E6BEE0600F90E68BE4F00000009017
:20074800E6A0E020E1F9759AE7759B4090E6BCE0702090E601E054BFFF90E6BAE060067DED
:20076800407E0080047D007E0090E601ED4FF002082190E6BEE0FF90E6BBE0FD7E0090E651
:20078800BAE07B004206EB420590E6BCE0FCC007C006C0058C82121334AF82158115811589
:2007A80081EF707590E6A0E043E001F0806B90E6BCE0FF7440C0E074E7C0E0E4C0E08F82F2
:2007C800121372AF82158115811581EF600B90E6BEE0FF90E68BF0804090E6A0E043E0014F
:2007E800F0803612137DE582702F90E6A0E043E001F08025121381E582701E90E6A0E04320
:20080800E001F080141213CAE582700D90E6A0E043E001F0800312143975820122A285B3B8
:200828009208E43390E7C0F0A200E43390E7C1F0121432AF8290E7C2EFF090E68F7403F0EA
:20084800C2002290E60174C0F090E600E054E74410F090E60B7403F000000090E67A7401EF
:20086800F075AF0790E67004F075800875B2DD75900075B30075A00075B40075B00075B5C0
:200888000090E6727418F075B10475B664758200120FC2758201120FC2120FF4120A5A43B0
:2008A800B10475982090E61174B0F000000090E61274A2F000000090E61474E2F000000055
:2008C80090E6137420F000000090E6157420F000000022C0E0C082C083D2025391EF90E690
:2008E8005D7401F0D083D082D0E032C021C0E0C0F0C082C083C007C006C005C004C003C058
:2009080002C001C000C0D075D0007582001219795391EF90E65D7410F0D0D0D000D001D0B1
:2009280002D003D004D005D006D007D083D082D0F0D0E0D02132C021C0E0C0F0C082C08396
:20094800C007C006C005C004C003C002C001C000C0D075D0007582011219795391EF90E6B9
:200968005D7420F0D0D0D000D001D002D003D004D005D006D007D083D082D0F0D0E0D0214C
:2009880032C021C0E0C0F0C082C083C007C006C005C004C003C002C001C000C0D075D00076
:2009A8005391EF90E659E030E10912082590E6597402F090E65B7401F0D0D0D000D001D0D8
:2009C80002D003D004D005D006D007D083D082D0F0D0E0D02132D2013212084B1212CED27E
:2009E800E890E668E043E008F090E65CE043E001F090E65CE043E010F090E65CE043E0209E
:200A0800F090E6587402F090E65A14F0D28AC28BD2AAD2AF90E680E020E11690E680E0432A
:200A2800E00AF09005DC12201C90E680E053E0F7F0D28712147F100202800312165C1001FB
:120A48000280F0120F0112127E121439D286D20080E17C
:0C00B800750946750A21750B4C750C216A
:200A5A00C01585811505810581120F01A9150989057E007F40C001C005C006C0077402C083
:200A7A00E0E4C0E07408C0E0E4C0E0758251121F66AF82E58124F9F581D001EF7002805B42
:200A9A008707BF1B08098707BFCA028002804CAE09AF0A7D00C006C007C0057406C0E0E41F
:200ABA00C0E0740AC0E0E4C0E0758251121F66E58124F9F581AE0BAF0C7D00C006C007C0C4
:200ADA00057406C0E0E4C0E07410C0E0E4C0E0758251121F66E58124F9F581851581D015D9
:200AFA0022C015858115058105810581E582FF24FC5006758200020B92BF02005014E515A7
:200B1A0024FCF8C3E694C208E6940150057582008066E51524FBF8E6600EA915098F06EE40
:200B3A002EFE74584EF7800AA91509EF2FFF74404FF7AF150FEF04F9E51524FCF808860691
:200B5A00740F5EF774022FF9E51524FCF88606A7067E007D40C007C006C0057403C0E0E432
:200B7A00C0E0C0E0C0E0C0E0C0E0C0E0758260121AFFE58124F6F581851581D01522C0152C
:200B9A00858115058105810581AF828F057E00ED24FEFDEE34FFFEC374019D74808EF06376
:200BBA00F08095F0400AE51524FDF8B60A005006758200020C757404250BFDE4350CFEEF82
:200BDA0024FEFC2DF582E43EF583E0FEE51524FDF8EE26F674042509FDE4350AFEEC2DF5D2
:200BFA0082E43EF583E0FE7D00E51524FDF886037C00C007C003C0048E828D83121ADCAD29
:200C1A0082AE8315811581D007EEC423CDC423541F6DCD541FCD6DCDFEA91509EF2FFF74FE
:200C3A00404FF7E904F88E07740F5FF6740229F8A60589077E007D40C007C006C0057403EC
:200C5A00C0E0E4C0E0C0E0C0E0C0E0C0E0C0E0758260121AFFE58124F6F581851581D015BE
:200C7A0022C015858115C082E5812409F581A81508E624FE4045A81508E670057D70FE8020
:200C9A00047D187E00E51524FDF886037C00C3EB9DEC64808EF063F08095F0401EA81508F7
:200CBA00E670057DF0FE80047D687E00C3ED9BEE64808CF063F08095F05006758200020E1F
:200CDA00FBA81508E625E0FE2509F582E4350AF583E0FCA3E0FDA8150808A60408A6050883
:200CFA007600087600E51524FDF886037C007D007F00C006C003C004C005C007A81508082C
:200D1A0086820886830886F008E61220AAAB82AC83ADF0FFE58124FCF581D00674802BE48B
:200D3A003CFCE43DFDE43FEE250BFEE4350CFA8C038D048E828A83E0FEA3E0FAEEC39BFB06
:200D5A00EA9CFCA81508E675F002A42400FE743C35F0FF8E828F83E0FAA3E0FDEAC39BFA8D
:200D7A00ED9CFDE5152409F8A60208A605E51524FCF8C3748086F063F08095F04006758285
:200D9A0000020EFBE5152409F808E6FB30E709E51524FCF8C3E496F6E5152409F8E608466E
:200DBA007003020EF8E51524FCF8C3748086F063F08095F0502FE51524FCF88602E6339540
:200DDA00E0FBE5152409F8C3E69A08E664808BF063F08095F0503BE5152409F8E51524FC53
:200DFA00F9E6F7802DE51524FCF88602E63395E0FBE5152409F8C3EA96EB64800886F06321
:200E1A00F08095F0500CE5152409F8E51524FCF9E6F78E828F83A8150808E0F6A3E008F612
:200E3A00E51524FCF88604E63395E0FD8C028D03A8150808E6C39AFA08E69BFB8E828F83A3
:200E5A00EAF0EBA3F0C006C007E5152409F88606088607EEC39CFCEF9DFDE5152409F8A6BC
:200E7A000408A605C3EA94C2EB9401D007D0065007D2867582008069E5152406F9A8150800
:200E9A00E626FD74404DF7E904F88E828F83E0A3E0FC740F5CF6740229F88E828F83E0F66D
:200EBA0089057C007B40C007C006C005C004C0037403C0E0E4C0E0C0E0C0E0C0E0C0E0C09F
:200EDA00E0758260121AFFAD82E58124F6F581D006D007ED6003020DB27582008003758242
:200EFA0001851581D01522C015E581F515240AF581A815087606AF150F7E007D40E4C0E0F9
:200F1A00C0E0C0E0C0E0C0E0C007C006C00504C0E0E4C0E0758200121AFFAF82E58124F6EA
:200F3A00F581EF7005F582020FBCE5152402FFFC7D007E40C007C004C005C0067409C0E0F0
:200F5A00E4C0E0758260121CABAE82E58124FBF581D007EE7004F5828048EF04F987065354
:200F7A00060F8E057E0074022FF987047B00EC4206EB4205903C00EEF0EDA3F074072FF95A
:200F9A00870653060F8E057E0074082FF987077C00EF4206EC4205903C02EEF0EDA3F07578
:200FBA008201851581D01522AF82C283000000EF7004C2828005BF0102C284000000D28373
:1A0FDA0022AF82C283000000EF7004D2828005BF0102D284000000D283229A
:0C214600EB135A28867BC9151C1310FDF2
:200FF40053B1DF75C00090215275F080021003C015858115C082C083C0F0E581240DF58196
:20101400E5B130E506758200021247308106758200021247E5152404F8E4F608F608F608B8
:20103400F67E00E515240CF87630C006E515240CF886061EA81508EE26FDE40836FE08864A
:20105400078D828E838FF012208EFAE5152404F8E5152408F9080808E6C313090909F718E5
:20107400E61319F718E61319F718E61319F7EAD00630E20A7B007C007D807F0080087B00BF
:201094007C007D007F00E5152408F8E6420308E6420408E6420508E64207EA2AFAE51524AF
:2010B4000DF8EFC313080808F6ED1318F6EC1318F6EB1318F6EA30E20A7C007D007B807FA4
:2010D4000080087C007D007B007F00C0068B06E515240DF8E6420408E6420508E642060868
:2010F400E64207EA2AFAE5152408F8EFC313080808F6EE1318F6ED1318F6EC1318F6EAD0CA
:201114000630E20A7D007B007C807F0080087D007B007C007F00E5152408F8E5152404F972
:20113400ED46F7EB084609F7EC084609F7EF084609F7E515240CF886057F001DBDFF011F9C
:20115400ED540760030211D6EE04FFEE2434FCE4343CFDE5152404F886028C828D83EAF0C9
:201174008F050FE5152408F8ED2434F6E4343C08F6E5152404F80886037D008B02E515243A
:2011940008F88682088683EAF0EF04FEE5152408F8EF2434F6E4343C08F6E5152404F87B15
:2011B40000080886047F008C02E5152408F88682088683EAF0E5152404F8E4F608F608F673
:2011D40008F6E515240CF816E515240CF8E6600302103E759A3C759B3490E600E0FF74E7CB
:2011F4005FF07E00C2C190E67BE0F5C130C1FD0EBE120040EF75820AC0071200DBD00790ED
:20121400E600EFF07F00EF2404FDE4343CFEA81508EF26FAE40836FB0886048A828B838CE7
:20123400F012208EFA8D828E83F00FBF300040D6758201851581D01522C015858115E5825B
:201254002404F582E4343CF583E51524FDF8E6F0903C0475F000121003D01522308104759B
:1612740082002243B1207582012253B1DF90215275F080021003B2
:202152000404040404040404040404040404040404040404040404040404040404040404ED
:10217200040404040404040404040404040404041D
:203E000012010002FFFFFF40091201480100010200010A060002FFFFFF4001000902270065
:203E200001010080FA0904000003FFFFFF00070581030002090705020200020007058602B8
:033E40000002007D
:203E44000902270001010080FA0904000004FFFFFF0007058103400014070502024000006E
:073E64000705860240000083
:203E6C00040309042A0377006F006A00630069006500630068006B003800400067006D00F2
:203E8C00610069006C002E0063006F006D0014034E0056004D0065006D00500072006F0068
:043EAC0067000000AB
:0200C400C20375
:20128A00903C57E0FEA3E0FF759A3C759B467D00903C56E0FCC3ED9C50298E04EC139208B5
:2012AA0090E67BE02400FCE43440FBA208E433FA43023E8C828B83EAF0EFC313CE13CEFF39
:2012CA000D80CD2290E6017482F090E6F574FFF090E6F374C0F090E6C3E4F090E6C1F0900C
:2012EA00E6C27407F090E6C0744EF090E6F4E4F090E60C04F0759A21759B92759DE4759E5A
:20130A00007F0090E67BE090E67CF00FBF800040F290E67174FFF0F5B490E672E043E080B3
:20132A00F043B68090E6C6E4F022C015858115AF82BF0129759D3C759E467F00E51524FBBF
:20134A00F8C3EF96500B90E67BE090E67CF00F80EBE51524FBF8903C56E6F0800575820036
:20136A008003758201D01522C015858115758200D0152275820022E50D60047582002290DB
:20138A00E6D07402F000000090E6D1E4F000000090E6C27406F000000090E6047480F0000C
:2013AA00000090E6047406F000000090E61A7408F000000075BB06750D01D203758201229B
:2013CA00E50D600475820022758900758E01C2A990E6C4E4F000000090E6C5E4F0903C59E5
:2013EA00F0A3F0903C57F0A3F090E6C27406F000000090E6047480F000000090E60474824A
:20140A00F000000090E604E4F000000090E6497482F000000090E6497482F0000000750DB8
:20142A0002750E0075820122A203E433F5822290E6F574FFF090E6C27407F090E6C4E4F02F
:20144A0000000090E6C5E4F0000000903C57E4F0A3F090E6047480F000000090E618E4F029
:20146A0000000090E61AE4F000000090E604E4F0F50DC20322E4B50D01227401B50D028045
:20148A00097402B50D02802C2222E5BB20E70122903C57E02401F0A3E03400F012128A9048
:2014AA00E6D07402F000000090E6D1E4F000000075BB0622E50E24FB500122E50E75F003B3
:2014CA00A49014CF730214DE02152502154D02156A0215BDE5AA30E0012200000090E60453
:2014EA007480F000000090E6047482F000000090E690E0FE7F0000000090E691E0FD7C00DB
:20150A00903C5BED4FF0EC4EA3F0903C5DE4F0A3F0903C5FF0750E01D2032290E6F3E053DF
:20152A00E07FF0903C5DE0FEA3E0FF8E8274F02FF583E0F5BE758C00758A00C28DD28C75F9
:20154A000E0222208D0122C28C90E6F3E043E080F0E5BB30E7FB75822D1200DB750E0322EA
:20156A00E5BEE5BB30E7FBAFBF903C5FE02401F0903C5DE0FDA3E0FE8D8274F02EF583E0FE
:20158A00FCEFB504028008903C5FE0FFBF0A2090E6F3E053E07FF08D8274F02EF583E0F547
:2015AA00BE758C00758A00C28DD28C750E0422750E0122208D0122903C5FE014F0E0600345
:2015CA00021659C28C90E6F3E043E080F0E5BB30E7FB903C59E02401F0A3E03400F0903C27
:2015EA005AE0FFBF0216903C59E4F0A3F0903C57E02401F0A3E03400F012128A903C5AE0D2
:20160A00FF90E6C4F0000000903C59E0FF90E6C5F0000000903C5DE02401F0A3E03400F0A3
:20162A00903C5DE0FEA3E0FF903C5BE0FCA3E0FDEEB50418EFB5051490E6497482F0000073
:12164A000090E604E4F0F50EC2038003750E01C28D2200
:202182006D626D323763000000000000000000000E013F01010101070002010000000000D9
:2021A200020206060606060600003F000000003F6411643F0101010702030201000000004D
:2021C2002624260606060606003F003F0000003F0B01023F01010107000A00010000000050
:2021E20002060606060606060000003F0000003F0101010101010107000000000000000025
:102202000606060606060606000000000000003F5D
:06008800E478FFF6D8FD4C
:1200C600750F0075100075114475123E75131C75143E25
:20165C00C015858115058190E6B9E0FF24F45003021777EF240A83F582EF241083F583E4D6
:20167C007395AA77BF7777D477E4FB15551616171617171617161617171217F1E5826003F2
:20169C0002178C90E6A0E043E001F002178C121885E582600302178C90E6A0E043E001F0B2
:2016BC0002178C1218F4E582600302178C90E6A0E043E001F002178C120268E582600302E5
:2016DC00178C1219A402178C120282AF8290E740EFF090E68AE4F090E68B04F002178C907C
:2016FC00E6BAE0F582120286E582600302178C90E6A0E043E001F08077AF150F7E007D40BF
:20171C0090E6BCE0FCC007C006C0058C8212026CAF82158115811581EF700A90E6A0E0432A
:20173C00E001F0804B90E740A81508E6F090E68AE4F090E68B04F0803790E6BAE0FF90E69A
:20175C00BCE0FEC0078E82120277AF821581EF701F90E6A0E043E001F0801590E6B9E0F589
:20177C008212028AE582700890E6A0E043E001F090E6A0E043E080F01581D01522AF827479
:20179C007F5FFE24F750030217EDEE240A83F582EE240D83F583E473C6CADDEDE1EDE5ED5C
:2017BC00E917171717171717171790E6A022EF30E7067EA27FE680047EA17FE68E828F8362
:2017DC002290E6A32290E6A42290E6A52290E6A6229000002290E6B8E0FFBF80028022BF78
:2017FC0081028008BF8202803702187D90E740E4F090E741F090E68AF090E68B7402F08027
:20181C0064E51025E0FFE50F420790E740EFF090E741E4F090E68AF090E68B7402F08045D4
:20183C0090E6BCE0F582121799AE82AF838E048F05EE4F7003F582228C828D83E0FC30E066
:20185C00067E017F0080047E007F0090E740EEF090E741E4F090E68AF090E68B7402F080EF
:20187C0004758200227582012290E6B8E0FF6005BF0258801B90E6BAE0FFBF010575100096
:20189C00805290E6BAE0FFBF060280487582002290E6BAE0703190E6BCE0F582121799AEF9
:2018BC0082AF83E0FD5305FE8E828F83EDF090E6BCE0FF30E70343071053071F90E683EF40
:2018DC00F074204FF0800D7582002290E6B9E0F58202028A7582012290E6B8E0FF6005BF24
:2018FC00026E802690E6BAE0FFBF020302197590E6BAE0FFBF0105751001805D90E6BAE00C
:20191C00FFBF060280537582002290E6BAE0703C90E6BCE0F582121799AE82AF83EE4F70E3
:20193C0003F582228E828F83E0FD4305018E828F83EDF090E6BCE0FF30E7034307105307C9
:20195C001F90E683EFF074204FF0800D7582002290E6B9E0F58202028A75820122AF82D3C9
:20197C0010AF01C3C0D0EF600E75111C75123E75134475143E800C75114475123E75131C22
:20199C0075143ED0D092AF22C015E581F5152404F58190E6BBE0FFBF01028019BF020280D0
:2019BC0026BF03028030BF0603021AAEBF0703021ABF021ACD7E007F3E90E6B3EFF090E699
:2019DC00B47400F0021AD590E6B3E512F090E6B4E511F0021AD5A81508766C08763E0876F0
:2019FC008090E6BAE0FCE5152404F87600E5152404F8E6B504028071C004E5152404F8061F
:201A1C00A815088602088603088604A8150886820886830886F012208E2AFAE43BFBA81523
:201A3C0008A60208A60308A604A81508740126FDE40836FE0886078D828E838FF012208E06
:201A5C00FDBD0304D004800CD004A81508E4F608F6087600A81508E60846600DE5152404D2
:201A7C00F8C3EC964003021A09A81508E608466017A81508860508860690E6B3EEF0A8158D
:201A9C000890E6B4E6F0803190E6A0E043E001F080277E127F3E90E6B3EFF090E6B47412BB
:1F1ABC00F0801690E6B3E514F090E6B4E513F0800890E6A0E043E001F0851581D01522AD
:200066007901E94400601B7A01902212786175923CE493F2A308B800020592D9F4DAF2758A
:0200860092FFE7
:203F00000208DB000221440002211E00022122000208F30002093E0002211B000220100019
:203F2000022012000220130002201400022017000221280002214500021ADB0002200700D6
:203F4000020989000220100002211A0002211C0002211D0002211F00022120000221210016
:203F600002208D0002201000022010000220100002201100022015000220180002201A001C
:203F8000022016000220190002201B0002208C000220080002200A0002200C0002200E000F
:183FA0000220090002200B0002200D0002200F00021AFE0002212700ED
:011ADB0032D8
:201ADC0074FE2581F8E68582F0A4C0E08582F018E6A4F582D0E025F0C58386F0A42583F5E5
:021AFC00832243
:011AFE0032B5
:201AFF00C015858115C082058105810581E51524FCF8E51524F7F9E726FD09E70836FEE5C8
:201B1F00152403F8A60508A6067C02903C60E4F0903C60E06006758200021CA590E678E09B
:201B3F0043E080F090E678E030E20C90000AC00412201CD00480D9A81508E626FB90E67973
:201B5F00F090E678E020E006903C60E060F3903C60E06006758200021CA590E678E020E247
:201B7F00AF90E678E020E13990E678E043E040F090E678E030E606903C60E060F3903C60F9
:201B9F00E06006758200021CA5EC14FBFC7005F582021CA590000AC00412201CD004021BE3
:201BBF002F7A007B00E5152403F8C3EA96EB08964003021C82E51524FCF8C3EA96EB08963C
:201BDF005023C004E51524F9F8EA26FCEB0836FE0886078C828E838FF0A815080812208EAD
:201BFF00F6D004802AE51524FCF8EAC396FEEB0896FFE51524F4F8EE26FEEF0836FF0886A1
:201C1F00058E828F838DF0A815080812208EF6A815080890E679E6F00ABA00010B90E6782E
:201C3F00E020E006903C60E060F3903C60E06005758200805190E678E030E203021B2F9048
:201C5F00E678E030E103021BC490E678E043E040F090E678E030E606903C60E060F37582D1
:201C7F0000802390E678E043E040F090E678E030E606903C60E060F3903C60E060057582D0
:201C9F00008003758201851581D01522C015858115C08205810581903C60E4F0E51524FC30
:201CBF00F8E4B6010508B6000104FE903C60E06006758200021E707C007D0090E678E043A9
:201CDF00E080F090E678E030E20C90000AC00612201CD00680D5A81508E626FB90E67974A1
:201CFF00014BF090E678E020E006903C60E060F3903C60E06006758200021E7090E678E08F
:201D1F0020E2A890E678E020E11B90E678E043E040F090E678E030E606903C60E060F37531
:201D3F008200021E70EE600890E678E043E020F090E679E0A8150808E4F608F6C004C0051E
:201D5F00A8150808740126FCE40836FDE51524FCF8C3EC96ED0896D005D0044003021E0EE5
:201D7F0090E678E020E006903C60E060F3903C60E06006758200021E7090E678E030E20335
:201D9F00021CCAC006A8150808740226FEE40836FFE51524FCF8E6B5060708E6B507028008
:201DBF0004D006800AD00690E678E043E020F0C006A81508088606088607A815080806B68C
:201DDF0000020806A81508088604088605E51524F9F8EE26FEEF0836FB08860790E679E03D
:201DFF00FA8E828B838FF0122129D006021D5B90E678E020E006903C60E060F3903C60E042
:201E1F006005758200804A90E678E030E203021CCA90E678E043E040F0E51524F9F8EC2670
:201E3F00FCED0836FD08860790E679E0FE8C828D838FF012212990E678E030E606903C60EE
:201E5F00E060F3903C60E060057582008003758201851581D01522C015858115C082E58193
:201E7F002405F581E5152402F9FEE5152405F8E4F608F6E51524FCF88602088603E5152451
:201E9F0005F8C001E51524FAF9C3E69708E60997D0014003021F5D7C0090E678E030E40690
:201EBF007C018B07A707EC04FDEC29F88A07A6078D07C002C003ED04FBEF29F8C000E5153F
:201EDF0024F7F8C001E5152405F9E726FA09E70836FD088607D001E5152405F806B6000282
:201EFF000806D0008A828D838FF012208EF68E047D007F407A00C006C003C002C001E4C09C
:201F1F00E0C0E0C0E0C0E0C0E0C004C005C007C003C002A815088682121AFFAF82E58124BA
:201F3F00F6F581D001D002D003D006D003D002EF7004F582800B0ABA00010B021E9C75823D
:201F5F0001851581D01522C01585811505810581AF827E0090E678E030E40FA915097E015D
:201F7F00E51524FCF8088605A705AD150DEE04FCEE2DF9E51524FCF88606A7067E007B409C
:201F9F007A00C007E4C0E0C0E0C0E0C0E0C0E0C005C006C003C004C0028F82121AFFAE829D
:201FBF00E58124F6F581D007EE7004F5828033E51524F7F8E6C0E008E6C0E008E6C0E0E515
:201FDF001524FAF8E6C0E008E6C0E08F82121CABAF82E58124FBF581EF7004F582800375BB
:081FFF008201851581D0152235
:0120070032A6
:0120080032A5
:0120090032A4
:20008E007800E84400600A790075923CE4F309D8FC7861E84400600C7901903C00E4F0A3A6
:0400AE00D8FCD9FAA7
:01200A0032A3
:01200B0032A2
:01200C0032A1
:01200D0032A0
:01200E00329F
:01200F00329E
:01201000329D
:01201100329C
:01201200329B
:01201300329A
:012014003299
:012015003298
:012016003297
:012017003296
:012018003295
:012019003294
:01201A003293
:01201B003292
:20201C00C01585811505810581AE82AF8390E600E05418C423541F70057CB1FD801C90E679
:20203C0000E05418C423541FFBBB01067A617B0180047AC27B028A048B05A81508A60408F8
:20205C00A605A81508E624FFFA08E634FFFBA81508A60208A603EA4B70E8EE24FFFAEF34FC
:10207C00FFFB8A068B07EA4B70D0851581D01522A1
:01208C003221
:01208D003220
:0D005900758121122123E58260030200560B
:1C208E0020F71430F6148883A88220F507E6A88375830022E280F7E49322E02261
:2020AA00AAF0FB74FB2581F8E58286F0A9F008A4FCADF0E58389F0A42DFDE435F0FEE5829C
:2020CA0086F0A42DFDE5F03EFEE433FFEA89F0A42EFEE5F03FFFE58386F0A42EFEE5F03F83
:2020EA00FFE5820886F0A42EFEE5F03FFFEB89F0A42FFFE58386F0A42FFFEA1886F0A42FDE
:10210A00FFE582080886F0A42F8EF08D838C822248
:01211A003292
:01211B003291
:01211C003290
:01211D00328F
:01211E00328E
:01211F00328D
:01212000328C
:01212100328B
:01212200328A
:04212300758200229F
:012127003285
:012128003284
:1B21290020F71130F6138883A88220F509F6A8837583002280FEF280F5F022B5
:012144003268
:012145003267
:00000001FF
