:2000DB00AF8290E600E05418C423541FFEBE020E8F06000000000000000000DEF52290E6EC
:1700FB0000E05418C423541FFEBE01088F06000000DEFB22DFFE22F4
:20011200AD82AE83AFF0750900754709754800754940754501E4F546F54AF54BF54CF54DF4
:20013200F54E758257C007C006C00512128AE582D005D006D0077003F58222850852755380
:20015200008D548E558F567582571213FBE5827003F582227582012285824C85834D85F0CC
:200172004E750B0075470B754800754940850A4A754B0075450175460075825712128AE52D
:0A019200827003F5822275820122BB
:20019C007F14AEB174FB5EF5B1758229C0071200DBD00743B104E5B130E00475820022E593
:2001BC00B120E009EF14FEFF70F5F58222903C5A7401F075820122AF828F061FEE601BC2B6
:2001DC009990E67BE0F599E5B120E009903C5AE4F0758200222099E180FBE5B130E10C751C
:1601FC0082641200DB903C5A7402F075820122903C5AE0F58222D5
:011CA2000041
:04000000020059326F
:01000B0032C2
:03001300020937A8
:01001B0032B2
:0100230032AA
:01002B0032A2
:01003300329A
:01003B003292
:03004300023F0079
:01004B003282
:03005300023F0069
:0600B200C200C201C202FF
:0300D800020056CD
:0300560002093A62
:200212007582002275820122758201227582012275820122AF82BF10030202C7BF110302A8
:2002320002F2BF2003020320BF2103020336BF22030203AABF23030203BDBF24030203F37B
:20025200BF3003020430BF3103020458BF320302048ABF33030204CCBF34030204EFBF40DE
:2002720003020513BF410302054ABF4203020573BF43030205A9BF44030205EFBF4F0302B9
:200292000605BF5003020617BF510302065EBF60030206ACBF61030206FBBF620302072846
:2002B200BF630302073ABF640302074CBF6F0302075E02076190E6BCE0700C90E6BAE0FFAA
:2002D20024FF928702076190E6BCE0FFBF0102800302076190E6BAE0FF24FF9286020761F2
:2002F2007F0090E6BEE0FEC3EF9E5016EF2440FDE434E7FEEF901C1293FC8D828E83F00FFD
:2003120080E090E6BEE0FF90E68BF002076112019CE582600302076190E6A0E0FF74014F61
:20033200F002076112020BAF82BF0102800990E6A0E0FF74014FF090E6BFE0FE7F0090E605
:20035200BEE0FD7C004207EC4206EF4E700302076190E68BE4F000000090E6A0E0FD20E114
:20037200F8759AE7759B4090E68BE0F582C007C0061201D3E582D006D007700C90E6A0E0DC
:20039200FD74014DF002076190E68BE0FD7C00EFC39DFFEE9CFE80B212020BAF8290E740C9
:2003B200EFF090E68B7401F0020761759A40759B00759DE7759E4090E6BCE0F59B7F009020
:2003D200E6BEE0FEC3EF9E500C90E67BE0FE90E67CF00F80EA90E6BEE0FF90E68BF00207A6
:2003F2006190E68BE4F000000090E6A0E0FF20E1F8759AE7759B40759D40759E0090E6BCEA
:20041200E0F59E7F0090E6BEE0FEC3EF9E400302076190E67BE0FE90E67CF00F80E790E62C
:20043200BEE0F50890E74075F000120112E582700990E6A0E0FF74014FF090E6BEE0FF90A2
:20045200E68BF002076190E68BE4F000000090E6A0E0FF20E1F890E6BEE0F50A90E74075BD
:20047200F00012016AE582600302076190E6A0E0FF74014FF002076190E68BE4F0000000E1
:2004920090E6A0E0FF20E1F890E68BE0FFBF3002800C90E6A0E0FF74014FF002076190E775
:2004B2004075F000120D9EE582600302076190E6A0E0FF74014FF002076190E6BCE0FF90E0
:2004D200E6BAE0F5138F82120F36E582600302076190E6A0E0FF74014FF002076190E6BAA3
:2004F200E0FFBFA516120F4DE582600302076190E6A0E0FF74014FF0020761120F5B020757
:200512006190E6BCE0FF90E6BBE0FD7E0090E6BAE07B004EF528EB4DF52990E6BDE0F52A4D
:200532008F82120A1EE582600302076190E6A0E0FF74014FF002076190E6BCE0FF90E6BAD6
:20055200E0F53290E6BBE0F5338F82120B28E582600302076190E6A0E0FF74014FF002070D
:200572006190E6BCE0FF90E6BCE0FEBE020050047E0280027E00EE2FFF90E6BAE0F52E8F75
:2005920082120A7EE582600302076190E6A0E0FF74014FF002076190E6BAE0701CC2AA904E
:2005B200E6BCE0F582120D5975820A1200DBC28BD2AAD287C28602076190E6BAE0FFBF0127
:2005D20010C287C28690E6BCE0F582120D7202076190E6A0E0FF74014FF0020761120CDED5
:2005F200E582600302076190E6A0E0FF74014FF0020761A281E433FF90E740F090E68B744D
:2006120001F002076190E6BDE0FE7F0090E6BCE07C004FF566EC4EF56790E6BEE0FF8F6805
:200632008C69756A40756BE78C6C75825112161AE582600C90E6BEE0FF90E68BF00207610A
:2006520090E6A0E0FF74014FF002076190E68BE4F000000090E6A0E0FF20E1F890E6BDE09F
:20067200FE7F0090E6BCE07C004FF559EC4EF55A90E6BEE0FF8F5B8C5C755D40755EE78CFA
:200692005F758251121584E582600302076190E6A0E0FF74014FF002076190E6BEE060102B
:2006B20090E68BE4F000000090E6A0E0FF20E1F8759AE7759B4090E6BCE0FF90E6BBE0FD00
:2006D2007E0090E6BAE07B004EF56FEB4DF57090E6BEE0F5718F82121044E582707190E601
:2006F200A0E0FF74014FF0806690E6BCE0FF7515407516E77517008F8212106DE582600B84
:2007120090E6BEE0FF90E68BF0804490E6A0E0FF74014FF080391210BBE582703290E6A0A1
:20073200E0FF74014FF080271210DFE582702090E6A0E0FF74014FF08015121128E5827015
:200752000E90E6A0E0FF74014FF080031211A275820122A285B3E43390E7C0F0A200E4339D
:2007720090E7C1F012119BAF8290E7C2EFF090E68F7403F0C2002290E60174C0F090E600D7
:20079200E0FF74E75F4410F090E60B7403F000000090E67A7401F075AF0790E67004F075B3
:2007B200800875B2DD75900075B30075A00075B40075B00075B50090E6727418F075B10453
:2007D20075B664758200120D59758201120D59120D8B1209B443B10475982090E61174B050
:2007F200F000000090E61274A2F000000090E61474E2F000000090E6137420F000000090FC
:20081200E6157420F022C0E0C082C083C007C0D075D000D202AF9174EF5FF59190E65D74C1
:2008320001F0D0D0D007D083D082D0E032C021C0E0C0F0C082C083C007C006C005C004C02B
:2008520003C002C001C000C0D075D000758200121980AF9174EF5FF59190E65D7410F0D02A
:20087200D0D000D001D002D003D004D005D006D007D083D082D0F0D0E0D02132C021C0E041
:20089200C0F0C082C083C007C006C005C004C003C002C001C000C0D075D0007582011219FD
:2008B20080AF9174EF5FF59190E65D7420F0D0D0D000D001D002D003D004D005D006D0078B
:2008D200D083D082D0F0D0E0D02132C021C0E0C0F0C082C083C007C006C005C004C003C07F
:2008F20002C001C000C0D075D000AF9174EF5FF59190E659E0FF30E10912076590E659747D
:2009120002F090E65B7401F0D0D0D000D001D002D003D004D005D006D007D083D082D0F0FC
:20093200D0E0D02132D20132120789120FDCD2E890E668E0FF74084FF090E65CE0FF7401D6
:200952004FF0E0FF74104FF0E0FF74204FF090E6587402F090E65A14F0D28AC28BD2AAD2F3
:20097200AF90E680E0FF20E11890E680E0FF740A4FF09005DC121B5190E680E0FF74F75FA8
:20099200F0D2871211EB100202800312167F10010280F0120CDE120F5B1211A2D286D200C6
:0209B20080E1E2
:0C00B8007522D675231B7524DC75251BF2
:2009B400120CDE756A26756B00756C4075660875670075680275690075825112161AE582B4
:2009D400700122741BB5260774CAB52702800122AE22AF238E6A8F6B756C0075660A75670A
:2009F4000075680675690075825112161AAE24AF258E6A8F6B756C0075661075670075687B
:200A14000675690075825102161AE582FF24FC500475820022BF0200500FC3E52894C2E546
:200A3400299401500475820022E52A600AEF2FFE74584EF52B8008EF2FFF74404FF52BAF31
:200A540029740F5FF52CAE287F008E2D754C2B8F4D754E40E4F545F546F547F548F54975F6
:200A74004A03F54B75826002128AAF828F057E00ED24FEFDEE34FFFEC374019D74808EF02B
:200A940063F08095F0400674F6252E40047582002274042524FDE43525FEEF24FEFC2DF561
:200AB40082E43EF583E0252EF52E74042522FDE43523FEEC2DF582E43EF583E0FE7D0085B0
:200AD4002E6F8D708E828D83C007121AB0AD82AE83D007EEC423CDC423541F6DCD541FCDF8
:200AF4006DCDFEEF2FFF74404FF52F8E07740F5FF5307E008D31754C2F8E4D754E40E4F5E7
:200B140045F546F547F548F549754A03F54B75826002128AE582FF24FE401EEF70047E705C
:200B340080027E18C3E5329E400FEF70047EF080027E68C3EE9532500475820022EF2FFE88
:200B54002522F582E43523F583E0FCA3E0FD7B007A0085326F8B708B718B728C828D838BFB
:200B7400F0EAC007C006121ACFAA82AB83ACF0FDD006D00774802AE43BFBE43CFCE43DEEFC
:200B94002524F582E43525F5838B028C03E0FCA3E0FDECC39AF537ED9BF538EF75F002A42F
:200BB4002400FB743C35F0FF8B828F83E0F539A3E0F53AAC37AD38E539C39CF537E53A9D22
:200BD400F538C374808533F063F08095F0400475820022E538FD30E706C3E49533F53343AF
:200BF4000640E53745387003020CDAC374808533F063F08095F0501DE533FC3395E0FDC307
:200C1400E5379CE53864808DF063F08095F05020853733801BE533FC3395E0FDC3EC953704
:200C3400ED64808538F063F08095F05003853733C0068B828F83E0F539A3E0F53AE533FAD1
:200C54003395E0FE8A048E05E539C39CFCE53A9DFD8B828F83ECF0EDA3F0E537C39AF53767
:200C7400E5389EF538C3EC94C2ED9401D0065006D286758200228E348B828F83E0A3E0FC14
:200C9400740F5CF5358B828F83E0FCA3E07D008C36754C348D4D754E40E4F545F546F54713
:200CB400F548F549754A03F54B758260C007C006C00312128AE582D003D006D00760030202
:200CD4000BF67582002275820122753B0675473B754800754940754501E4F546F54AF54B0B
:200CF400F54CF54DF54E75820012128AE5827003F5822275543C75550075564075520975E3
:200D140053007582601213FBE5827003F58222740F553DFE7F00AC3E7D00EC4207ED42061F
:200D3400903C00EFF0EEA3F0740F5543FE7F00AC447D00EC4207ED4206903C02EFF0EEA3C6
:200D5400F075820122AF82C283000000EF7004C2828005BF0102C284000000D28322AF8223
:170D7400C283000000EF7004D2828005BF0102D284000000D2832258
:0C1BD600EB135A28867BC9151C1310FD68
:200D8B00AFB174DF5FF5B175C000901BE275F080020D9E85820D85830E85F00FE5B130E5E3
:200DAB0004758200223081047582002279007A007B007C008C11751030E51014250DFDE4E5
:200DCB00350EFEAF0F8D828E838FF0121BA9F512ECC313FCEB13FBEA13FAE913F9E51230C3
:200DEB00E20A78007D007E807F00800878007D007E007F00E84201ED4202EE4203EF42044C
:200E0B00E5122512F512ECC313FCEB13FBEA13FAE913F9E51230E20A78007D007E807F006A
:200E2B00800878007D007E007F00E84201ED4202EE4203EF4204E5122512F512ECC313FC76
:200E4B00EB13FBEA13FAE913F9E51230E20A78007D007E807F00800878007D007E007F00A3
:200E6B00E84201ED4202EE4203EF4204AE107F001EBEFF011FEE54077047AF110511EF2482
:200E8B0034F582E4343CF5838900E4E8F0AF110511EF2434F582E4343CF5838A058D00E827
:200EAB00F0AF110511EF2434F582E4343CF5837D008B067F008E00E8F079007A007B007CFA
:200ECB00001510E4B510028003020DC4759A3C759B3490E600E0FFFE74E75EF07E00C2C155
:200EEB0090E67BE0F5C130C1FD0EBE120040EF75820AC0071200DBD00790E600EFF07F0005
:200F0B00EF2404FDE4343CFEEF250DFAE4350EFBAC0F8A828B838CF0121BA9FA8D828E83E2
:200F2B00F00FBF300040D975820122E5822404F582E4343CF583E513F0903C0475F0000294
:200F4B000D9E3081047582002243B12075820122AFB174DF5FF5B1901BE275F080020D9E08
:201BE200040404040404040404040404040404040404040404040404040404040404040463
:101C02000404040404040404040404040404040492
:203E000012010002FFFFFF40091201480100010200010A060002FFFFFF4001000902270065
:203E200001010080FA0904000003FFFFFF00070581030002080705020200020007058602B9
:033E40000002007D
:203E44000902270001010080FA0904000004FFFFFF0007058103400014070502024000006E
:073E64000705860240000083
:203E6C00040309042A0377006F006A00630069006500630068006B003800400067006D00F2
:203E8C00610069006C002E0063006F006D0014034E0056004D0065006D00500072006F0068
:043EAC0067000000AB
:0200C400C20375
:200F6B00903C57E0FEA3E0FF759A3C759B467D00903C56E0FCC3ED9C50258E04EC139204DF
:200F8B0090E67BE02400F582E43440F583A204E433443EFCF0EFC313CE13CEFF0D80D122EC
:200FAB0075BEFFE5BB30E7FB75BEFFE5BB30E7FB22E5BEE5BB30E7FB744055BEFFE5BB3051
:200FCB00E7FB744055BF6207EFB40100E433F5822290E60174C2F090E6F574FFF090E6F3CB
:200FEB0074C0F090E6C3E4F090E6C1F090E6C27407F090E6C0744EF090E6F4E4F090E60C43
:20100B0004F0759A1C759B22759DE4759E007F0090E67BE0FE90E67CF00FBF800040F1902C
:20102B00E67174FFF0F5B490E672E0FF74804FF043B68090E6C6E4F022AF82BF0020759D7B
:20104B003C759E467F00C3EF9571500C90E67BE0FE90E67CF00F80EE903C56E571F07582D0
:20106B000122AF82E5146004758200228F06BE00028005BF0117800A90E6C5E4F000000051
:20108B00800F90E6C57401F0000000800475820022E5BEE5BB30E7FBAD15AE16AF178D82C9
:2010AB008E838FF0E5BF121A941211A275820122E514600475820022120FAB75BE30E5BB0D
:2010CB0030E7FB75BE30E5BB30E7FB751401D20375820122E51460047582002290E6D07435
:2010EB0002F000000090E6D1E4F000000090E6C27406F000000090E6047480F00000009048
:20110B00E6047406F000000090E61A7408F000000075BB06751402D20375820122E514606B
:20112B000475820022120FAB90E6D0E4F000000090E6D17401F000000090E6C47401F00056
:20114B00000090E6C574FFF0903C57F0A3F090E6C27406F000000090E6047480F000000040
:20116B0090E6047482F000000090E604E4F000000090E6497482F000000090E6497482F06C
:20118B0000000090E6187410F075140375820122A203E433F5822290E6F574FFF090E6C241
:2011AB007407F090E6C4E4F000000090E6C5E4F0000000903C57E4F0A3F0120F6B90E6040C
:2011CB007480F000000090E618E4F000000090E61AE4F000000090E604E4F0F514C203221C
:2011EB00E51424FC500122E51475F003A49011FC7302120802120902121702124022120F48
:20120B00BCE582700122751400C20322E5BB30E76D903C57E02401F0A3E03400F0120F6B2E
:20122B0090E6D07402F000000090E6D1E4F000000075BB0622E5BB30E744E5AB30E103C223
:20124B000322120FBCE582603590E6C4E0FFBF011790E6C5E0FFBFFF0F903C57E02401F096
:1F126B00A3E03400F0120F6B75BE40E5BB30E7FB90E6D17401F000000075BB00D2032239
:201C12006D78323866000000000000000000000008013F01010101070002010000000000A7
:201C3200020206060606060600003F000000003F05013F0101010107020001000000000099
:201C5200242606060606060600003F000000003F0401023F01010107000A0001000000002B
:201C720002020606060606060000003F0000003F0105013F010101070A020401000000004B
:101C920026242606060606060000003F0000003F36
:20128A00AF82E54A2545F54FE54B3546F550755102903C59E4F0EF2FFF903C59E0E060041F
:2012AA007582002290E678E0FB74804BF0E0FB30E20C90000AC007121B51D00780DB90E693
:2012CA0079EFF090E678E0FB20E007903C59E0E060F1903C59E0E060047582002290E67856
:2012EA00E0FB20E2B490E678E0FB20E13B90E678E0FB74404BF090E678E0FB30E607903CE4
:20130A0059E0E060F1903C59E0E0600475820022E55114FB8B517003F5822290000AC00769
:20132A00121B51D0070212A37A007B00C3EA954FEB955040030213D4C3EA9545EB95465078
:20134A0016EA2547F8EB3548F9AC49888289838CF0121BA9FC801DEAC39545F8EB9546F98A
:20136A00E8254CF8E9354DF9AE4E888289838EF0121BA9FC90E679ECF00ABA00010B90E63B
:20138A0078E0FE20E007903C59E0E060F1903C59E0E060047582002290E678E0FE30E2036D
:2013AA000212A390E678E0FE30E10302133690E678E0FF74404FF090E678E0FF30E6079007
:2013CA003C59E0E060F17582002290E678E0FF74404FF090E678E0FF30E607903C59E0E0B5
:2013EA0060F1903C59E0E060047582002275820122AF82903C59E4F0EF2FFF43070174010F
:20140A00B55208E4B5530474018001E4FE903C59E0E06004758200227C007D0090E678E0C2
:20142A00FB74804BF0E0FB30E21090000AC007C006121B51D006D00780D390E679EFF09078
:20144A00E678E0FB20E007903C59E0E060F1903C59E0E060047582002290E678E0FB20E2DF
:20146A00AC90E678E0FB20E11C90E678E0FB74404BF090E678E0FB30E607903C59E0E060ED
:20148A00F175820022EE600990E678E0FB74204BF090E679E0E4F557F55874012557F8E430
:2014AA003558F9C3E89552E99553506A90E678E0F920E007903C59E0E060F1903C59E0E096
:2014CA0060047582002290E678E0F930E20302141774022557F8E43558F9E8B5520DE9B58E
:2014EA00530990E678E0F9742049F0A857A9580557E4B557020558AC57AD58E82554F8E9FD
:20150A003555F9AB5690E679E0FA888289838BF0121A940214A490E678E0FB20E007903CCD
:20152A0059E0E060F1903C59E0E060047582002290E678E0FB30E20302141790E678E0FFFD
:20154A0074404FF0EC2554FCED3555FDAF5690E679E0FE8C828D838FF0121A9490E678E0BC
:20156A00FF30E607903C59E0E060F1903C59E0E060047582002275820122858260E4F564EF
:20158A00F565AB59AC5AC3E564955BE565955C40030216167A0090E678E0FF30E4067A0159
:2015AA008C078F618A070AEF2461F98B06A7068A070AEF2461F9AE64AF650564E4B56402C2
:2015CA000565EE255DFEEF355EFFAD5F8E828F838DF0121BA9F78A457546007547617548CC
:2015EA0000754940E4F54AF54BF54CF54DF54E856082C004C00312128AE582D003D00470A0
:20160A0003F582220BBB00010C02159075820122AF827E0090E678E0FD30E4067E01AD6769
:20162A008D6D8E050EED246DF9AC66A7048E4575460075476D754800754940E4F54AF54BFC
:20164A00F54CF54DF54E8F82C00712128AE582D0077003F58222856852856953856A5485A2
:15166A006B55856C568F821213FBE5827003F5822275820122A6
:06008800E478FFF6D8FD4C
:1200C600751900751A00751B44751C3E751D1C751E3EE9
:20167F0090E6B9E0FF24F45003021785EF240A83F582EF241083F583E473B1C785DD8585C4
:20169F00F385031A32661616171617171617171717171217FFE582600302179B90E6A0E052
:2016BF00FF74014FF002179B12188CE582600302179B90E6A0E0FF74014FF002179B1218E9
:2016DF00FBE582600302179B90E6A0E0FF74014FF002179B120212E582600302179B121946
:2016FF00AB02179B12021EAF8290E740EFF090E68AE4F090E68B04F002179B90E6BAE0F5F1
:20171F0082120222E582707490E6A0E0FF74014FF0806990E6BCE0FF756F1875700075713D
:20173F00408F82120216E582700B90E6A0E0FF74014FF0804790E740E518F090E68AE4F045
:20175F0090E68B04F0803590E6BCE0FF90E6BAE0F56F8F8212021AE582702190E6A0E0FF0F
:20177F0074014FF0801690E6B9E0F582120226E582700990E6A0E0FF74014FF090E6A0E0C1
:20179F00FF74804FF022AF828F0653067FEE24F750030217FBEE240A83F582EE240D83F51B
:2017BF0083E473D4D8EBFBEFFBF3FBF717171717171717171790E6A022EF30E7067EA27F1D
:2017DF00E680047EA17FE68E828F832290E6A32290E6A42290E6A52290E6A6229000002214
:2017FF0090E6B8E0FFBF8002801FBF81028005BF8273803490E740E4F090E741F090E68A7B
:20181F00F090E68B7402F08060E51A25E0FFE519420790E740EFF090E741E4F090E68AF016
:20183F0090E68B7402F0804190E6BCE0F5821217A5AE82AF838E048F05EE4F7003F5822239
:20185F008C828D83E0FC30E0047F0180027F0090E740EFF090E741E4F090E68AF090E68BC7
:20187F007402F08004758200227582012290E6B8E0FF6005BF0258801B90E6BAE0FFBF0137
:20189F0005751A00805290E6BAE0FFBF060280487582002290E6BAE0703190E6BCE0F582D2
:2018BF001217A5AE82AF83E0FD5305FE8E828F83EDF090E6BCE0FF30E70343071053071FA9
:2018DF0090E683EFF074204FF0800D7582002290E6B9E0F5820202267582012290E6B8E0C0
:2018FF00FF6005BF026E802690E6BAE0FFBF020302197C90E6BAE0FFBF0105751A01805DE5
:20191F0090E6BAE0FFBF060280537582002290E6BAE0703C90E6BCE0F5821217A5AE82AFF4
:20193F0083EE4F7003F582228E828F83E0FD4305018E828F83EDF090E6BCE0FF30E7034307
:20195F00071053071F90E683EFF074204FF0800D7582002290E6B9E0F582020226758201DF
:20197F0022AF82D20510AF02C205EF600E751B1C751C3E751D44751E3E800C751B44751C26
:20199F003E751D1C751E3EA20592AF2290E6BBE0FFBF01028019BF02028029BF0302803313
:2019BF00BF0603021A66BF0703021A7B021A8A7E007F3E8F0690E6B3EEF07E007F3E90E630
:2019DF00B4EEF022AF1C90E6B3EFF0AE1B90E6B4EEF0227D6C7E3E7F8090E6BAE0F56F7BDB
:2019FF00008B020BEAB56F0280428D008E018F028D828E838FF0121BA928F8E439F9880579
:201A1F0089068A0774012DF9E43EFA8F0489828A838CF0121BA9F9B9030280067D007E009B
:201A3F007F00ED4E6006C3E56F9B50B5ED4E600D8E0790E6B3EFF090E6B4EDF02290E6A02C
:201A5F00E0FF74014FF0227E127F3E8F0690E6B3EEF07E127F3E90E6B4EEF022AF1E90E60F
:151A7F00B3EFF0AE1D90E6B4EEF02290E6A0E0FF74014FF02200
:200066007901E94400601B7A01901CA2785A75923CE493F2A308B800020592D9F4DAF27507
:0200860092FFE7
:1B1A940020F71130F6138883A88220F509F6A8837583002280FEF280F5F02251
:203F000002081800021BD400021BC900021BCD0002083F0002088E00021BC600021B450098
:203F2000021B4700021B4800021B4900021B4C00021BD300021BD500021AAF00021ACE0052
:203F40000208DD00021B4500021BC500021BC700021BC800021BCA00021BCB00021BCC00B5
:203F6000021BA800021B4500021B4500021B4500021B4600021B4A00021B4D00021B4F00B6
:203F8000021B4B00021B4E00021B5000021BA700021B3D00021B3F00021B4100021B4300A9
:183FA000021B3E00021B4000021B4200021B4400021ACD00021BD200B9
:011AAF003204
:1D1AB000E582856FF0A4C582C0F08570F0A4D0F025F0C583856FF0A42583F58322C3
:011ACD0032E6
:011ACE0032E5
:201ACF00AAF0FBE582856FF0A4FCADF0E583856FF0A42DFDE435F0FEE5828570F0A42DFD9F
:201AEF00E5F03EFEE433FFEA856FF0A42EFEE5F03FFFE5838570F0A42EFEE5F03FFFE58268
:201B0F008571F0A42EFEE5F03FFFEB856FF0A42FFFEA8570F0A42FFFE5838571F0A42FFF8B
:0E1B2F00E5828572F0A42F8EF08D838C8222C9
:011B3D003275
:011B3E003274
:20008E007800E84400600A790075923CE4F309D8FC785AE84400600C7901903C00E4F0A3AD
:0400AE00D8FCD9FAA7
:011B3F003273
:011B40003272
:011B41003271
:011B42003270
:011B4300326F
:011B4400326E
:011B4500326D
:011B4600326C
:011B4700326B
:011B4800326A
:011B49003269
:011B4A003268
:011B4B003267
:011B4C003266
:011B4D003265
:011B4E003264
:011B4F003263
:011B50003262
:201B5100AE82AF8390E600E05418C423541FFD70057CB1FD801C90E600E05418C423541FA2
:201B7100FBBB01067A617B0180047AC27B028A048B058C6F8D70156F74FFB56F021570E566
:161B91006F457070F1EE24FFFAEF34FFFB8A068B07EA4B70DD22CB
:011BA700320B
:011BA800320A
:0D005900758172121BCEE582600302005615
:1C1BA90020F71430F6148883A88220F507E6A88375830022E280F7E49322E0224B
:011BC50032ED
:011BC60032EC
:011BC70032EB
:011BC80032EA
:011BC90032E9
:011BCA0032E8
:011BCB0032E7
:011BCC0032E6
:011BCD0032E5
:041BCE0075820022FA
:011BD20032E0
:011BD30032DF
:011BD40032DE
:011BD50032DD
:00000001FF
