:2000DB00AF8290E600E05418C423541FFEBE020E8F06000000000000000000DEF52290E6EC
:1700FB0000E05418C423541FFEBE01088F06000000DEFB22DFFE22F4
:20011200C0148581140581AD82AE83AFF0A814087600AC140C7B007A40C007C006C005E4E9
:20013200C0E0C0E0C0E0C0E0C0E0C004C003C00204C0E0E4C0E0758257121A8EAC82E58180
:2001520024F6F581D005D006D007EC7004F582802BE51424FDF886037C00C005C006C00790
:20017200C003C004758257121C3AAF82E58124FBF581EF7004F58280037582011581D01435
:2001920022C014858114C082C083C0F00581E5142404F87600E51424FDF886037C00E514E3
:2001B2002404FA7E007F40A81408E6C0E008E6C0E008E6C0E0C003C004C002C006C007741E
:2001D20001C0E0E4C0E0758257121A8EAF82E58124F6F581EF7004F58280037582018514CB
:0401F20081D0142282
:2001F6007F1453B1FB758229C0071200DBD00743B104E5B130E00475820022E5B120E00952
:20021600EF14FEFF70F5F58222903C5A7401F075820122AF828F061FEE601BC29990E67B8B
:20023600E0F599E5B120E009903C5AE4F0758200222099E180FBE5B130E10C758264120053
:12025600DB903C5A7402F075820122903C5AE0F5822276
:012186000058
:04000000020059326F
:01000B0032C2
:030013000209DE01
:01001B0032B2
:0100230032AA
:01002B0032A2
:01003300329A
:01003B003292
:03004300023F0079
:01004B003282
:03005300023F0069
:0600B200C200C201C202FF
:0300D800020056CD
:030056000209E1BB
:2002680075820022C014858114758201D01422C014858114758201D0142275820122758274
:200288000122AF82BF100302032BBF1103020356BF2003020384BF2103020399BF22030200
:2002A800040ABF230302041DBF2403020452BF300302048DBF31030204B8BF32030204ECC6
:2002C800BF330302052BBF3403020551BF4003020574BF41030205B4BF42030205E3BF4376
:2002E8000302061FBF4403020664BF4F03020679BF500302068BBF51030206DFBF60030205
:200308000739BF61030207B6BF62030207EBBF63030207FCBF640302080DBF6F0302081EDB
:2003280002082190E6BCE0700C90E6BAE0FF24FF928702082190E6BCE0FFBF01028003022E
:20034800082190E6BAE0FF24FF92860208217F0090E6BEE0FEC3EF9E5016EF2440FDE43448
:20036800E7FEEF9020F693FC8D828E83F00F80E090E6BEE0FF90E68BF00208211201F6E5D0
:2003880082600302082190E6A0E043E001F0020821120261AF82BF0102800890E6A0E043E7
:2003A800E001F090E6BFE0FE7F0090E6BEE0FD7C004207EC4206EF4E700302082190E68BEC
:2003C800E4F000000090E6A0E020E1F9759AE7759B4090E68BE0F582C007C006120229E504
:2003E80082D006D007700B90E6A0E043E001F002082190E68BE0FD7C00EFC39DFFEE9CFEE6
:2004080080B4120261AF8290E740EFF090E68B7401F0020821759A40759B00759DE7759E68
:200428004090E6BCE0F59B7F0090E6BEE0FEC3EF9E500B90E67BE090E67CF00F80EB90E6F3
:20044800BEE0FF90E68BF002082190E68BE4F000000090E6A0E020E1F9759AE7759B40755B
:200468009D40759E0090E6BCE0F59E7F0090E6BEE0FEC3EF9E400302082190E67BE090E649
:200488007CF00F80E890E6BEE0FFC00790E74075F000120112AF821581EF700890E6A0E032
:2004A80043E001F090E6BEE0FF90E68BF002082190E68BE4F000000090E6A0E020E1F9909C
:2004C800E6BEE0FFC00790E74075F000120193AF821581EF600302082190E6A0E043E001AA
:2004E800F002082190E68BE4F000000090E6A0E020E1F990E68BE0FFBF3002800B90E6A0A2
:20050800E043E001F002082190E74075F000121003E582600302082190E6A0E043E001F074
:2005280002082190E6BAE0FF90E6BCE0FEC0078E8212124DAF821581EF600302082190E667
:20054800A0E043E001F002082190E6BAE0FFBFA515121270E582600302082190E6A0E0438A
:20056800E001F002082112127E02082190E6BDE0FF90E6BBE0FD7E0090E6BAE07B00420639
:20058800EB420590E6BCE0FCC007C006C0058C82120AFBAF82158115811581EF600302084D
:2005A8002190E6A0E043E001F002082190E6BBE0FF90E6BAE0FE90E6BCE0FDC007C0068D96
:2005C80082120C7BAF8215811581EF600302082190E6A0E043E001F002082190E6BAE0FFDA
:2005E80090E6BCE0FE90E6BCE0FDBD020050067C027D0080047C007D00EC2EF582C00712DD
:200608000B98AF821581EF600302082190E6A0E043E001F002082190E6BAE0701CC2AA901E
:20062800E6BCE0F582120FC275820A1200DBC28BD2AAD287C28602082190E6BAE0FFBF0184
:2006480010C287C28690E6BCE0F582120FDB02082190E6A0E043E001F0020821120F01E505
:2006680082600302082190E6A0E043E001F0020821A281E433FF90E740F090E68B7401F0E7
:2006880002082190E6BEE0FF7E0090E6BDE0FC7D0090E6BCE07A004205EA42047440C0E0B3
:2006A80074E7C0E0E4C0E0C007C006C005C004758251121EF5AF82E58124F9F581EF600CAB
:2006C80090E6BEE0FF90E68BF002082190E6A0E043E001F002082190E68BE4F00000009049
:2006E800E6A0E020E1F990E6BEE0FF7E0090E6BDE0FC7D0090E6BCE07A004205EA420474FE
:2007080040C0E074E7C0E0E4C0E0C007C006C005C004758251121E05AF82E58124F9F581B5
:20072800EF600302082190E6A0E043E001F002082190E6BEE0600F90E68BE4F00000009017
:20074800E6A0E020E1F9759AE7759B4090E6BCE0702090E601E054BFFF90E6BAE060067DED
:20076800407E0080047D007E0090E601ED4FF002082190E6BEE0FF90E6BBE0FD7E0090E651
:20078800BAE07B004206EB420590E6BCE0FCC007C006C0058C82121367AF82158115811556
:2007A80081EF707590E6A0E043E001F0806B90E6BCE0FF7440C0E074E7C0E0E4C0E08F82F2
:2007C8001213A5AF82158115811581EF600B90E6BEE0FF90E68BF0804090E6A0E043E0011C
:2007E800F08036121401E582702F90E6A0E043E001F08025121425E582701E90E6A0E043F6
:20080800E001F0801412146EE582700D90E6A0E043E001F080031214E875820122A285B364
:200828009208E43390E7C0F0A200E43390E7C1F01214E1AF8290E7C2EFF090E68F7403F03B
:20084800C2002290E60174C0F090E600E054E74410F090E60B7403F000000090E67A7401EF
:20086800F075AF0790E67004F075800875B2DD75900075B30075A00075B40075B00075B5C0
:200888000090E6727418F075B10475B664758200120FC2758201120FC2120FF4120A5A43B0
:2008A800B10475982090E61174B0F000000090E61274A2F000000090E61474E2F000000055
:2008C80090E6137420F000000090E6157420F000000022C0E0C082C083D2025391EF90E690
:2008E8005D7401F0D083D082D0E032C021C0E0C0F0C082C083C007C006C005C004C003C058
:2009080002C001C000C0D075D0007582001218ED5391EF90E65D7410F0D0D0D000D001D03E
:2009280002D003D004D005D006D007D083D082D0F0D0E0D02132C021C0E0C0F0C082C08396
:20094800C007C006C005C004C003C002C001C000C0D075D0007582011218ED5391EF90E646
:200968005D7420F0D0D0D000D001D002D003D004D005D006D007D083D082D0F0D0E0D0214C
:2009880032C021C0E0C0F0C082C083C007C006C005C004C003C002C001C000C0D075D00076
:2009A8005391EF90E659E030E10912082590E6597402F090E65B7401F0D0D0D000D001D0D8
:2009C80002D003D004D005D006D007D083D082D0F0D0E0D02132D2013212084B121301D24A
:2009E800E890E668E043E008F090E65CE043E001F090E65CE043E010F090E65CE043E0209E
:200A0800F090E6587402F090E65A14F0D28AC28BD2AAD2AF90E680E020E11690E680E0432A
:200A2800E00AF09005DC121FAB90E680E053E0F7F0D28712153110020280031215D0100147
:120A48000280F0120F0112127E1214E8D286D20080E1CD
:0C00B8007509BA750A20750BC0750C2084
:200A5A00C01485811405810581120F01A9140989057E007F40C001C005C006C0077402C086
:200A7A00E0E4C0E07408C0E0E4C0E0758251121EF5AF82E58124F9F581D001EF7002805BB4
:200A9A008707BF1B08098707BFCA028002804CAE09AF0A7D00C006C007C0057406C0E0E41F
:200ABA00C0E0740AC0E0E4C0E0758251121EF5E58124F9F581AE0BAF0C7D00C006C007C036
:200ADA00057406C0E0E4C0E07410C0E0E4C0E0758251121EF5E58124F9F581851481D0144D
:200AFA0022C014858114058105810581E582FF24FC5006758200020B92BF02005014E514AA
:200B1A0024FCF8C3E694C208E6940150057582008066E51424FBF8E6600EA914098F06EE42
:200B3A002EFE74584EF7800AA91409EF2FFF74404FF7AF140FEF04F9E51424FCF808860694
:200B5A00740F5EF774022FF9E51424FCF88606A7067E007D40C007C006C0057403C0E0E433
:200B7A00C0E0C0E0C0E0C0E0C0E0C0E0758260121A8EE58124F6F581851481D01422C014A0
:200B9A00858114058105810581AF828F057E00ED24FEFDEE34FFFEC374019D74808EF06377
:200BBA00F08095F0400AE51424FDF8B60A005006758200020C757404250BFDE4350CFEEF83
:200BDA0024FEFC2DF582E43EF583E0FEE51424FDF8EE26F674042509FDE4350AFEEC2DF5D3
:200BFA0082E43EF583E0FE7D00E51424FDF886037C00C007C003C0048E828D83121A6BAD9B
:200C1A0082AE8315811581D007EEC423CDC423541F6DCD541FCD6DCDFEA91409EF2FFF74FF
:200C3A00404FF7E904F88E07740F5FF6740229F8A60589077E007D40C007C006C0057403EC
:200C5A00C0E0E4C0E0C0E0C0E0C0E0C0E0C0E0758260121A8EE58124F6F581851481D01431
:200C7A0022C014858114C082E5812409F581A81408E624FE4045A81408E670057D70FE8024
:200C9A00047D187E00E51424FDF886037C00C3EB9DEC64808EF063F08095F0401EA81408F9
:200CBA00E670057DF0FE80047D687E00C3ED9BEE64808CF063F08095F05006758200020E1F
:200CDA00FBA81408E625E0FE2509F582E4350AF583E0FCA3E0FDA8140808A60408A6050885
:200CFA007600087600E51424FDF886037C007D007F00C006C003C004C005C007A81408082E
:200D1A0086820886830886F008E6122039AB82AC83ADF0FFE58124FCF581D00674802BE4FC
:200D3A003CFCE43DFDE43FEE250BFEE4350CFA8C038D048E828A83E0FEA3E0FAEEC39BFB06
:200D5A00EA9CFCA81408E675F002A42400FE743C35F0FF8E828F83E0FAA3E0FDEAC39BFA8E
:200D7A00ED9CFDE5142409F8A60208A605E51424FCF8C3748086F063F08095F04006758287
:200D9A0000020EFBE5142409F808E6FB30E709E51424FCF8C3E496F6E5142409F8E6084671
:200DBA007003020EF8E51424FCF8C3748086F063F08095F0502FE51424FCF88602E6339542
:200DDA00E0FBE5142409F8C3E69A08E664808BF063F08095F0503BE5142409F8E51424FC56
:200DFA00F9E6F7802DE51424FCF88602E63395E0FBE5142409F8C3EA96EB64800886F06323
:200E1A00F08095F0500CE5142409F8E51424FCF9E6F78E828F83A8140808E0F6A3E008F615
:200E3A00E51424FCF88604E63395E0FD8C028D03A8140808E6C39AFA08E69BFB8E828F83A5
:200E5A00EAF0EBA3F0C006C007E5142409F88606088607EEC39CFCEF9DFDE5142409F8A6BE
:200E7A000408A605C3EA94C2EB9401D007D0065007D2867582008069E5142406F9A8140802
:200E9A00E626FD74404DF7E904F88E828F83E0A3E0FC740F5CF6740229F88E828F83E0F66D
:200EBA0089057C007B40C007C006C005C004C0037403C0E0E4C0E0C0E0C0E0C0E0C0E0C09F
:200EDA00E0758260121A8EAD82E58124F6F581D006D007ED6003020DB275820080037582B3
:200EFA0001851481D01422C014E581F514240AF581A814087606AF140F7E007D40E4C0E0FF
:200F1A00C0E0C0E0C0E0C0E0C007C006C00504C0E0E4C0E0758200121A8EAF82E58124F65B
:200F3A00F581EF7005F582020FBCE5142402FFFC7D007E40C007C004C005C0067409C0E0F1
:200F5A00E4C0E0758260121C3AAE82E58124FBF581D007EE7004F5828048EF04F9870653C5
:200F7A00060F8E057E0074022FF987047B00EC4206EB4205903C00EEF0EDA3F074072FF95A
:200F9A00870653060F8E057E0074082FF987077C00EF4206EC4205903C02EEF0EDA3F07578
:200FBA008201851481D01422AF82C283000000EF7004C2828005BF0102C284000000D28375
:1A0FDA0022AF82C283000000EF7004D2828005BF0102D284000000D283229A
:0C20BA00EB135A28867BC9151C1310FD7F
:200FF40053B1DF75C0009020C675F080021003C014858114C082C083C0F0E581240DF58125
:20101400E5B130E506758200021247308106758200021247E5142404F8E4F608F608F608B9
:20103400F67E00E514240CF87630C006E514240CF886061EA81408EE26FDE40836FE08864D
:20105400078D828E838FF012201DFAE5142404F8E5142408F9080808E6C313090909F71858
:20107400E61319F718E61319F718E61319F7EAD00630E20A7B007C007D807F0080087B00BF
:201094007C007D007F00E5142408F8E6420308E6420408E6420508E64207EA2AFAE51424B1
:2010B4000DF8EFC313080808F6ED1318F6EC1318F6EB1318F6EA30E20A7C007D007B807FA4
:2010D4000080087C007D007B007F00C0068B06E514240DF8E6420408E6420508E642060869
:2010F400E64207EA2AFAE5142408F8EFC313080808F6EE1318F6ED1318F6EC1318F6EAD0CB
:201114000630E20A7D007B007C807F0080087D007B007C007F00E5142408F8E5142404F974
:20113400ED46F7EB084609F7EC084609F7EF084609F7E514240CF886057F001DBDFF011F9D
:20115400ED540760030211D6EE04FFEE2434FCE4343CFDE5142404F886028C828D83EAF0CA
:201174008F050FE5142408F8ED2434F6E4343C08F6E5142404F80886037D008B02E514243D
:2011940008F88682088683EAF0EF04FEE5142408F8EF2434F6E4343C08F6E5142404F87B17
:2011B40000080886047F008C02E5142408F88682088683EAF0E5142404F8E4F608F608F675
:2011D40008F6E514240CF816E514240CF8E6600302103E759A3C759B3490E600E0FF74E7CD
:2011F4005FF07E00C2C190E67BE0F5C130C1FD0EBE120040EF75820AC0071200DBD00790ED
:20121400E600EFF07F00EF2404FDE4343CFEA81408EF26FAE40836FB0886048A828B838CE8
:20123400F012201DFA8D828E83F00FBF300040D6758201851481D01422C014858114E582D0
:201254002404F582E4343CF583E51424FDF8E6F0903C0475F000121003D01422308104759D
:1612740082002243B1207582012253B1DF9020C675F0800210033F
:2020C60004040404040404040404040404040404040404040404040404040404040404047A
:1020E60004040404040404040404040404040404AA
:203E000012010002FFFFFF40091201480100010200010A060002FFFFFF4001000902270065
:203E200001010080FA0904000003FFFFFF00070581030002090705020200020007058602B8
:033E40000002007D
:203E44000902270001010080FA0904000004FFFFFF0007058103400014070502024000006E
:073E64000705860240000083
:203E6C00040309042A0377006F006A00630069006500630068006B003800400067006D00F2
:203E8C00610069006C002E0063006F006D0014034E0056004D0065006D00500072006F0068
:043EAC0067000000AB
:0200C400C20375
:20128A00903C57E0FEA3E0FF759A3C759B467D00903C56E0FCC3ED9C50298E04EC139208B5
:2012AA0090E67BE02400FCE43440FBA208E433FA43023E8C828B83EAF0EFC313CE13CEFF39
:2012CA000D80CD2275BEFFE5BB30E7FB75BEFFE5BB30E7FB22E5BEE5BB30E7FBAFBE530782
:2012EA0040E5BB30E7FBE5BF54406207EFB401009208E433F5822290E6017482F090E6F59B
:20130A0074FFF090E6F374C0F090E6C3E4F090E6C1F090E6C27407F090E6C0744EF090E69E
:20132A00F4E4F090E60C04F0759A21759B06759DE4759E007F0090E67BE090E67CF00FBF16
:20134A00800040F290E67174FFF0F5B490E672E043E080F043B68090E6C6E4F022C014857F
:20136A008114AF82BF0129759D3C759E467F00E51424FBF8C3EF96500B90E67BE090E67C18
:20138A00F00F80EBE51424FBF8903C56E6F080057582008003758201D01422C014858114E6
:2013AA00AF82E50D60057582008049BF00028005BF0117800A90E6C5E4F000000080109005
:2013CA00E6C57401F000000080057582008025E5BEE5BB30E7FBE51424FBF886050886064E
:2013EA000886078D828E838FF0E5BF121A4F1214E8758201D01422E50D6004758200221203
:20140A0012CE75BE30E5BB30E7FB75BE30E5BB30E7FB750D01D20375820122E50D6004757B
:20142A0082002290E6D07402F000000090E6D1E4F000000090E6C27406F000000090E6041B
:20144A007480F000000090E6047406F000000090E61A7408F000000075BB06750D02D2032F
:20146A0075820122E50D6004758200221212CE90E6D0E4F000000090E6D17401F000000021
:20148A0090E6C47401F000000090E6C574FFF0903C57F0A3F090E6C27406F000000090E647
:2014AA00047480F000000090E6047482F000000090E604E4F000000090E6497482F00000E7
:2014CA000090E6497482F000000090E6187410F0750D0375820122A203E433F5822290E6F1
:2014EA00F574FFF090E6C27407F090E6C4E4F000000090E6C5E4F0000000903C57E4F0A330
:20150A00F012128A90E6047480F000000090E618E4F000000090E61AE4F000000090E60485
:20152A00E4F0F50DC20322E50D24FC500122E50D75F003A49015427302154E02154F021525
:20154A005D021586221212DFE582700122750D00C20322E5BB30E76D903C57E02401F0A320
:20156A00E03400F012128A90E6D07402F000000090E6D1E4F000000075BB0622E5BB30E7D9
:20158A0044E5AB30E103C203221212DFE582603590E6C4E0FFBF011790E6C5E0FFBFFF0F9C
:2015AA00903C57E02401F0A3E03400F012128A75BE40E5BB30E7FB90E6D17401F0000000E3
:0615CA0075BB00D20322F4
:2020F6006D78323866000000000000000000000008013F01010101070002010000000000BF
:20211600020206060606060600003F000000003F05013F01010101070200010000000000B0
:20213600242606060606060600003F000000003F0401023F01010107000A00010000000042
:2021560002020606060606060000003F0000003F0105013F010101070A0204010000000062
:1021760026242606060606060000003F0000003F4D
:06008800E478FFF6D8FD4C
:1200C600750E00750F0075104475113E75121C75133E2B
:2015D000C014858114058190E6B9E0FF24F450030216EBEF240A83F582EF241083F583E4F2
:2015F00073091EEB33EBEB48EB586F89C9161616161616161616161616121765E5826003A1
:2016100002170090E6A0E043E001F00217001217F9E582600302170090E6A0E043E001F06F
:20163000021700121868E582600302170090E6A0E043E001F0021700120268E582600302A1
:201650001700121918021700120282AF8290E740EFF090E68AE4F090E68B04F00217009038
:20167000E6BAE0F582120286E582600302170090E6A0E043E001F08077AF140F7E007D40D8
:2016900090E6BCE0FCC007C006C0058C8212026CAF82158115811581EF700A90E6A0E043B7
:2016B000E001F0804B90E740A81408E6F090E68AE4F090E68B04F0803790E6BAE0FF90E628
:2016D000BCE0FEC0078E82120277AF821581EF701F90E6A0E043E001F0801590E6B9E0F516
:2016F0008212028AE582700890E6A0E043E001F090E6A0E043E080F01581D01422AF827407
:201710007F5FFE24F75003021761EE240A83F582EE240D83F583E4733A3E516155615961D4
:201730005D17171717171717171790E6A022EF30E7067EA27FE680047EA17FE68E828F837A
:201750002290E6A32290E6A42290E6A52290E6A6229000002290E6B8E0FFBF80028022BF04
:2017700081028008BF820280370217F190E740E4F090E741F090E68AF090E68B7402F08040
:2017900064E50F25E0FFE50E420790E740EFF090E741E4F090E68AF090E68B7402F0804563
:2017B00090E6BCE0F58212170DAE82AF838E048F05EE4F7003F582228C828D83E0FC30E07F
:2017D000067E017F0080047E007F0090E740EEF090E741E4F090E68AF090E68B7402F0807C
:2017F00004758200227582012290E6B8E0FF6005BF0258801B90E6BAE0FFBF0105750F0024
:20181000805290E6BAE0FFBF060280487582002290E6BAE0703190E6BCE0F58212170DAE11
:2018300082AF83E0FD5305FE8E828F83EDF090E6BCE0FF30E70343071053071F90E683EFCC
:20185000F074204FF0800D7582002290E6B9E0F58202028A7582012290E6B8E0FF6005BFB0
:20187000026E802690E6BAE0FFBF02030218E990E6BAE0FFBF0105750F01805D90E6BAE026
:20189000FFBF060280537582002290E6BAE0703C90E6BCE0F58212170DAE82AF83EE4F70FC
:2018B00003F582228E828F83E0FD4305018E828F83EDF090E6BCE0FF30E703430710530756
:2018D0001F90E683EFF074204FF0800D7582002290E6B9E0F58202028A75820122AF82D356
:2018F00010AF01C3C0D0EF600E75101C75113E75124475133E800C75104475113E75121CB6
:2019100075133ED0D092AF22C014E581F5142404F58190E6BBE0FFBF01028019BF0202805F
:2019300026BF03028030BF0603021A22BF0703021A33021A417E007F3E90E6B3EFF090E6C9
:20195000B47400F0021A4990E6B3E511F090E6B4E510F0021A49A81408766C08763E087697
:201970008090E6BAE0FCE5142404F87600E5142404F8E6B504028071C004E5142404F806AE
:20199000A814088602088603088604A8140886820886830886F012201D2AFAE43BFBA81424
:2019B00008A60208A60308A604A81408740126FDE40836FE0886078D828E838FF012201D05
:2019D000FDBD0304D004800CD004A81408E4F608F6087600A81408E60846600DE514240462
:2019F000F8C3EC96400302197DA81408E608466017A81408860508860690E6B3EEF0A814AA
:201A10000890E6B4E6F0803190E6A0E043E001F080277E127F3E90E6B3EFF090E6B4741247
:1F1A3000F0801690E6B3E513F090E6B4E512F0800890E6A0E043E001F0851481D014223D
:200066007901E94400601B7A01902186785A75923CE493F2A308B800020592D9F4DAF2751E
:0200860092FFE7
:1B1A4F0020F71130F6138883A88220F509F6A8837583002280FEF280F5F02296
:203F00000208DB000220B8000220AD000220B1000208F30002093E000220AA00021F9F006E
:203F2000021FA100021FA200021FA300021FA6000220B7000220B900021A6A00021F960080
:203F400002098900021F9F000220A9000220AB000220AC000220AE000220AF000220B00034
:203F600002201C00021F9F00021F9F00021F9F00021FA000021FA400021FA700021FA900AB
:203F8000021FA500021FA800021FAA0002201B00021F9700021F9900021F9B00021F9D009E
:183FA000021F9800021F9A00021F9C00021F9E00021A8D000220B60098
:011A6A003249
:201A6B0074FE2581F8E68582F0A4C0E08582F018E6A4F582D0E025F0C58386F0A42583F556
:021A8B008322B4
:011A8D003226
:201A8E00C014858114C082058105810581E51424FCF8E51424F7F9E726FD09E70836FEE53D
:201AAE00142403F8A60508A6067C02903C59E4F0903C59E06006758200021C3490E678E08D
:201ACE0043E080F090E678E030E20C90000AC004121FABD00480D9A81408E626FB90E67958
:201AEE00F090E678E020E006903C59E060F3903C59E06006758200021C3490E678E020E238
:201B0E00AF90E678E020E13990E678E043E040F090E678E030E606903C59E060F3903C5978
:201B2E00E06006758200021C34EC14FBFC7005F582021C3490000AC004121FABD004021AA9
:201B4E00BE7A007B00E5142403F8C3EA96EB08964003021C11E51424FCF8C3EA96EB089691
:201B6E005023C004E51424F9F8EA26FCEB0836FE0886078C828E838FF0A814080812201D91
:201B8E00F6D004802AE51424FCF8EAC396FEEB0896FFE51424F4F8EE26FEEF0836FF088614
:201BAE00058E828F838DF0A814080812201DF6A814080890E679E6F00ABA00010B90E67813
:201BCE00E020E006903C59E060F3903C59E06005758200805190E678E030E203021ABE903A
:201BEE00E678E030E103021B5390E678E043E040F090E678E030E606903C59E060F37582BB
:201C0E0000802390E678E043E040F090E678E030E606903C59E060F3903C59E0600575824F
:201C2E00008003758201851481D01422C014858114C08205810581903C59E4F0E51424FCAD
:201C4E00F8E4B6010508B6000104FE903C59E06006758200021DFF7C007D0090E678E04393
:201C6E00E080F090E678E030E20C90000AC006121FABD00680D5A81408E626FB90E6797485
:201C8E00014BF090E678E020E006903C59E060F3903C59E06006758200021DFF90E678E080
:201CAE0020E2A890E678E020E11B90E678E043E040F090E678E030E606903C59E060F375AA
:201CCE008200021DFFEE600890E678E043E020F090E679E0A8140808E4F608F6C004C00503
:201CEE00A8140808740126FCE40836FDE51424FCF8C3EC96ED0896D005D0044003021D9DCB
:201D0E0090E678E020E006903C59E060F3903C59E06006758200021DFF90E678E030E20326
:201D2E00021C59C006A8140808740226FEE40836FFE51424FCF8E6B5060708E6B5070280EC
:201D4E0004D006800AD00690E678E043E020F0C006A81408088606088607A814080806B6FF
:201D6E0000020806A81408088604088605E51424F9F8EE26FEEF0836FB08860790E679E0B0
:201D8E00FA8E828B838FF0121A4FD006021CEA90E678E020E006903C59E060F3903C59E014
:201DAE006005758200804A90E678E030E203021C5990E678E043E040F0E51424F9F8EC2654
:201DCE00FCED0836FD08860790E679E0FE8C828D838FF0121A4F90E678E030E606903C5948
:201DEE00E060F3903C59E060057582008003758201851481D01422C014858114C082E58110
:201E0E002405F581E5142402F9FEE5142405F8E4F608F6E51424FCF88602088603E51424C6
:201E2E0005F8C001E51424FAF9C3E69708E60997D0014003021EEC7C0090E678E030E40674
:201E4E007C018B07A707EC04FDEC29F88A07A6078D07C002C003ED04FBEF29F8C000E514B1
:201E6E0024F7F8C001E5142405F9E726FA09E70836FD088607D001E5142405F806B60002F5
:201E8E000806D0008A828D838FF012201DF68E047D007F407A00C006C003C002C001E4C07E
:201EAE00E0C0E0C0E0C0E0C0E0C004C005C007C003C002A814088682121A8EAF82E581249E
:201ECE00F6F581D001D002D003D006D003D002EF7004F582800B0ABA00010B021E2B758220
:201EEE0001851481D01422C01485811405810581AF827E0090E678E030E40FA914097E01D4
:201F0E00E51424FCF8088605A705AD140DEE04FCEE2DF9E51424FCF88606A7067E007B4010
:201F2E007A00C007E4C0E0C0E0C0E0C0E0C0E0C005C006C003C004C0028F82121A8EAE827F
:201F4E00E58124F6F581D007EE7004F5828033E51424F7F8E6C0E008E6C0E008E6C0E0E587
:201F6E001424FAF8E6C0E008E6C0E08F82121C3AAF82E58124FBF581EF7004F5828003759E
:081F8E008201851481D01422A8
:011F96003218
:011F97003217
:011F98003216
:20008E007800E84400600A790075923CE4F309D8FC785AE84400600C7901903C00E4F0A3AD
:0400AE00D8FCD9FAA7
:011F99003215
:011F9A003214
:011F9B003213
:011F9C003212
:011F9D003211
:011F9E003210
:011F9F00320F
:011FA000320E
:011FA100320D
:011FA200320C
:011FA300320B
:011FA400320A
:011FA5003209
:011FA6003208
:011FA7003207
:011FA8003206
:011FA9003205
:011FAA003204
:201FAB00C01485811405810581AE82AF8390E600E05418C423541F70057CB1FD801C90E6ED
:201FCB0000E05418C423541FFBBB01067A617B0180047AC27B028A048B05A81408A604086B
:201FEB00A605A81408E624FFFA08E634FFFBA81408A60208A603EA4B70E8EE24FFFAEF3470
:10200B00FFFB8A068B07EA4B70D0851481D0142214
:01201B003292
:01201C003291
:0D0059007581211220B2E58260030200567D
:1C201D0020F71430F6148883A88220F507E6A88375830022E280F7E49322E022D2
:20203900AAF0FB74FB2581F8E58286F0A9F008A4FCADF0E58389F0A42DFDE435F0FEE5820D
:2020590086F0A42DFDE5F03EFEE433FFEA89F0A42EFEE5F03FFFE58386F0A42EFEE5F03FF4
:20207900FFE5820886F0A42EFEE5F03FFFEB89F0A42FFFE58386F0A42FFFEA1886F0A42F4F
:10209900FFE582080886F0A42F8EF08D838C8222BA
:0120A9003204
:0120AA003203
:0120AB003202
:0120AC003201
:0120AD003200
:0120AE0032FF
:0120AF0032FE
:0120B00032FD
:0120B10032FC
:0420B2007582002211
:0120B60032F7
:0120B70032F6
:0120B80032F5
:0120B90032F4
:00000001FF
